:1000000000F0012021040000D9040000518D0000FF
:10001000538D0000558D0000578D0000000000003A
:10002000000000000000000000000000598D0000EA
:100030005B8D0000000000005D8D00005F8D000002
:10004000618D0000618D0000618D0000618D0000F8
:10005000618D0000618D0000618D0000618D0000E8
:10006000618D0000618D0000618D0000618D0000D8
:10007000618D0000618D0000618D0000618D0000C8
:10040000FFFFFFFFFFFFFFFFFFFFFFFFFE7FFFFF7D
:040410000701310AA5
:1004200072B64FF000004FF000014FF000024FF0A5
:1004300000034FF000044FF000054FF000064FF0AE
:1004400000071B484FF4401101601A481A49016027
:100450001A4880F30888FFE7194842F220510160EA
:1004600018484FF6FF710160FFE71748002809D0D0
:100470001649174A521A013A04DD0020002309C127
:10048000083AFCDA134800684FF05A318842F9D034
:10049000FFE708F0C9FC00F020F862B608F088FD1C
:1004A0000AF0BEFF00BFFEE7AFF30080AFF30080AD
:1004B0000480044008ED00E00010FE1F00F0012061
:1004C0000020054008200540010000000000FE1F3C
:1004D00000F001203843FE1FFEE708B54FF0E0238F
:1004E000D3F8883D4FF0E02243F47003C2F8883D12
:1004F000BFF34F8FBFF36F8F4FF0E023D3F8143D5E
:100500004FF0E02243F00103C2F8143D4FF0E02326
:10051000D3F8203D4FF0E02223F47F03C2F8203DC2
:100520004FF080434FF077321A604FF08043002243
:100530001A624FF0804300225A624FF0804300223B
:10054000DA624FF0804300221A644FF080430022A9
:100550005A644FF0804300229A644FF08043002297
:10056000DA644FF0804300221A654FF08043002286
:100570005A654FF0804300229A654FF08043002275
:10058000DA654FF0804300221A664FF08043002264
:100590005A664FF0804300229A664FF08043002253
:1005A000DA66BFF34F8FBFF36F8F002008F0D2FCE5
:1005B00000BF08BD08B52F482AF0DCFB00202AF058
:1005C00057FC00BF2AF0D7FC0346332BFAD12AF0A0
:1005D000B3FC00202AF080FC27480BF054F8274891
:1005E0002BF012FB00202BF0E5F9254826F014FE35
:1005F00024483AF0A1FE01203BF09EFA22480BF07D
:10060000F1FD224827F0B0FA21482DF0ABFC21483B
:100610000AF07CFF0121572017F032FE4FF4804290
:100620004EF6513100202DF03FFE4FF480424EF641
:10063000513101202DF038FE4FF480424EF65131F9
:1006400002202DF031FE4FF480424EF6513103204E
:100650002DF02AFE4FF480424EF6513104202DF049
:1006600023FE4FF480424EF6513105202DF01CFE42
:1006700000BF08BDB0020400C0ED03007C190400F7
:1006800084000400B81C0400BCF303003001040023
:10069000481B040078F8030008B501F0C5FC00BF52
:1006A00008BD00BF704708B501F094FF06F02CFDAF
:1006B00006F0DAF906F0F6FC03F03AFD02F044FC2D
:1006C00005F00EF907F0CCF906F042F906F0F0F962
:1006D0000121572017F0D4FD01218E2017F0D0FD05
:1006E00001218F2017F0CCFD0121972017F0C8FDC4
:1006F0000121982017F0C4FD0121992017F0C0FDB9
:1007000001219A2017F0BCFD01217A2017F0B8FDD5
:1007100001217C2017F0B4FD00BF08BD00BF704769
:1007200008B501F043FB00BF08BD00BF704708B526
:1007300006F0BCF906F0DEFC02F006FC02F028FC34
:100740000AF038FC01F06AFF00BF08BD00B599B09F
:100750002E4B1B68179300238DF85B300023ADF8F8
:1007600058302B4BDA889DF85B30D2B218A90B4475
:1007700003F8482C264BDB881B0A9AB29DF85B30A5
:100780000133D2B218A90B4403F8482C9DF85B3012
:1007900001338DF85B309DF85B3001338DF85B30B1
:1007A0001B4B1A899DF85B30D2B218A90B4403F891
:1007B000482C174B1B891B0A9AB29DF85B300133FA
:1007C000D2B218A90B4403F8482C9DF85B300233D1
:1007D0008DF85B300F4B1B7803F00303179A13441B
:1007E000179306A89DF85B20BDF8581003AB009343
:1007F0000346179801F0C4F90F2303AA07CA01F0B2
:1008000059FB00BF19B05DF804FB00BF80DB03009B
:10081000143BFE1F9D39FE1F00B599B0404B5B692C
:10082000179300238DF85B300023ADF858303D4B13
:10083000DA689DF85B30D2B218A90B4403F8482C53
:10084000384BDB681A0A9DF85B300133D2B218A925
:100850000B4403F8482C334BDB681A0C9DF85B30D3
:100860000233D2B218A90B4403F8482C2D4BDB6895
:100870001A0E9DF85B300333D2B218A90B4403F86B
:10088000482C9DF85B3004338DF85B30254B1A699A
:100890009DF85B30D2B218A90B4403F8482C214BC9
:1008A0001B691A0A9DF85B300133D2B218A90B44B8
:1008B00003F8482C1B4B1B691A0C9DF85B30023364
:1008C000D2B218A90B4403F8482C164B1B691A0E18
:1008D0009DF85B300333D2B218A90B4403F8482CBF
:1008E0009DF85B3004338DF85B300F4B1B7803F0C1
:1008F0000303179A1344179306A89DF85B20BDF8CD
:10090000581003AB00930346179801F039F91223EE
:1009100003AA07CA01F0CEFA00BF19B05DF804FBC4
:1009200080DB0300143BFE1F9D39FE1F00B599B00C
:100930002B4B9B6A17930023ADF85A3000238DF898
:100940005930284B5B68DAB29DF85930591C8DF844
:10095000591002F00302D2B218A90B4403F8482C34
:100960009DF859305A1C8DF8592019461D4B5A785C
:1009700018AB0B4403F8482C9DF859305A1C8DF8DD
:1009800059201946174B9A7818AB0B4403F8482C9A
:100990009DF859305A1C8DF859201946114B1A7878
:1009A00018AB0B4403F8482C0F4B1B7803F00303E0
:1009B000179A1344179306A89DF85920BDF85A10AA
:1009C00003AB00930346179801F0DAF8132303AA48
:1009D00007CA01F06FFA00BF19B05DF804FB00BF51
:1009E00080DB0300283BFE1F9D39FE1F00B599B038
:1009F000384BDB6B179300238DF85B300023ADF889
:100A00005830354B1A889DF85B30D2B218A90B4488
:100A100003F8482C304B1B881B0A9AB29DF85B30B8
:100A20000133D2B218A90B4403F8482C9DF85B306F
:100A300002338DF85B30284B5A889DF85B30D2B278
:100A400018A90B4403F8482C234B5B881B0A9AB265
:100A50009DF85B300133D2B218A90B4403F8482C3F
:100A60009DF85B3002338DF85B301B4B9A889DF804
:100A70005B30D2B218A90B4403F8482C164B9B8864
:100A80001B0A9AB29DF85B300133D2B218A90B440D
:100A900003F8482C9DF85B3002338DF85B300F4B28
:100AA0001B7803F00303179A1344179306A89DF8C5
:100AB0005B20BDF8581003AB00930346179801F074
:100AC0005FF8142303AA07CA01F0F4F900BF19B0B4
:100AD0005DF804FB80DB0300143BFE1F9D39FE1F05
:100AE00000B599B05D4B1B6D179300238DF85B30FB
:100AF0000023ADF858305A4B1A689DF85B30D2B2DB
:100B000018A90B4403F8482C554B1B681A0A9DF88A
:100B10005B300133D2B218A90B4403F8482C504B78
:100B20001B681A0C9DF85B300233D2B218A90B4433
:100B300003F8482C4A4B1B681A0E9DF85B300333B0
:100B4000D2B218A90B4403F8482C9DF85B3004334B
:100B50008DF85B30424B9A889DF85B30591C8DF8BC
:100B60005B10D2B218A90B4403F8482C3C4B9B886D
:100B70001B0A9BB2DBB203F00F03DAB2384BDB681F
:100B8000DBB21B01DBB203F03003DBB21343DAB29A
:100B9000334B1B69DBB29B01DBB203F04003DBB2DA
:100BA0001344D9B22E4B5B69DBB2DB01DAB29DF89C
:100BB0005B30581C8DF85B000A44D2B218A90B4474
:100BC00003F8482C264B9B68DBB203F00F03DAB224
:100BD000234B9B69DBB21B01DBB203F03003DBB2BA
:100BE0001343D9B21E4B1B7F9B01DAB29DF85B30D9
:100BF000581C8DF85B000A44D2B218A90B4403F8C4
:100C0000482C174B5B7F1946154B9B7F5B00DAB274
:100C10009DF85B30581C8DF85B000A44D2B218A9CD
:100C20000B4403F8482C0F4B1B7803F00303179A6F
:100C30001344179306A89DF85B20BDF8581003AB2A
:100C400000930346179800F09BFF0E2303AA07CAE0
:100C500001F030F900BF19B05DF804FB80DB030040
:100C6000303BFE1F9D39FE1F00B599B0454B5B6EB2
:100C70001793002316930023ADF85630424B1A8881
:100C8000169BDBB2D2B218A90B4403F84C2C3E4B96
:100C90001B881B0A9AB2169BDBB20133D2B218A989
:100CA0000B4403F84C2C169B02331693364B5A8890
:100CB000169BDBB2D2B218A90B4403F84C2C324B72
:100CC0005B881B0A9AB2169BDBB20133D2B218A919
:100CD0000B4403F84C2C169B023316932A4B9A882C
:100CE000169BDBB2D2B218A90B4403F84C2C264B4E
:100CF0009B881B0A9AB2169BDBB20133D2B218A9A9
:100D00000B4403F84C2C169B02331693169B5A1C6B
:100D100016921D4A927918A90B4403F84C2C1A4BD1
:100D20009B68DBB203F00303D9B2174BDB68DBB27D
:100D30009B00DBB203F00C03DAB2169B581C169032
:100D40000A43D2B218A90B4403F84C2C0F4B1B7862
:100D500003F00303179A13441793169BDAB205A8FE
:100D6000BDF8561002AB00930346179800F008FF39
:100D7000102302AA07CA01F09DF800BF19B05DF860
:100D800004FB00BF80DB0300003BFE1F9D39FE1FFC
:100D900000B599B03F4B9B6F179300238DF85B30E4
:100DA0000023ADF858303C4B1A689DF85B30D2B246
:100DB00018A90B4403F8482C374B1B681A0A9DF8F6
:100DC0005B300133D2B218A90B4403F8482C324BE4
:100DD0001B681A0C9DF85B300233D2B218A90B4481
:100DE00003F8482C2C4B1B681A0E9DF85B3003331C
:100DF000D2B218A90B4403F8482C9DF85B30043399
:100E00008DF85B30244B5B68DBB203F00303DAB28E
:100E1000214B9B68DBB21B01DBB203F03003DBB27A
:100E20001343D9B21C4BDB68DBB29B01DAB29DF8ED
:100E30005B30581C8DF85B000A44D2B218A90B44F1
:100E400003F8482C9DF85B305A1C8DF85B2019463E
:100E5000114B1A7C18AB0B4403F8482C0F4B1B7832
:100E600003F00303179A1344179306A89DF85B2019
:100E7000BDF8581003AB00930346179800F080FEAE
:100E8000112303AA07CA01F015F800BF19B05DF8D5
:100E900004FB00BF80DB0300503BFE1F9D39FE1F9B
:100EA00086B0039002910192009300238DF81730D1
:100EB0009DF91730039A13441B7803F00703DAB245
:100EC000029B1A709DF91730DBB20133DBB28DF84B
:100ED00017309DF917300333039A13441B781A0611
:100EE0009DF91730023303990B441B781B041A43F6
:100EF0009DF91730013303990B441B781B021343F0
:100F00009DF9172003990A4412781A43019B1A602D
:100F10009DF817300433DBB28DF817309DF9173088
:100F20000133039A13441B781B021AB29DF9173040
:100F300003990B441B781BB213431BB29AB2009B5C
:100F40001A809DF817300233DBB28DF817309DF907
:100F50001730039A13441B78002B14BF012300237E
:100F6000DAB2069B1A7000BF06B0704700BF704728
:100F700000B59DB003468DF80F3000231B939DF8FC
:100F80000F30002B03D1944B1B681B9306E09DF898
:100F90000F30012B02D1904B9B6A1B930023ADF8BD
:100FA000663000238DF865309DF80F208B4913467D
:100FB0009B0013441B010B4448331B681893002308
:100FC0001A9300231793864B1B68032B19D1854B6B
:100FD0001B69854AA2FB0323DB081793834BD3F8D5
:100FE00028321A939DF80F30814A52F82330179A0D
:100FF0009A422CD99DF80F307D49179A41F8232049
:1010000025E0774B1B68042B19D1764B5B69764A38
:10101000A2FB0323DB081793744BD3F860321A93B7
:101020009DF80F30724A52F82330179A9A420ED91F
:101030009DF80F306E49179A41F8232007E00023EE
:101040001A939DF80F306A4A002142F823109DF848
:101050000F30674A52F82330189A9A420CD99DF8FB
:101060000F30634A52F823109DF80F301A9A0A4441
:101070005F4941F8232005E09DF80F305C49189A3C
:1010800041F823209DF80F20544913469B00134438
:101090001B010B444E331A789DF86530591C8DF8AE
:1010A00065101CA90B4403F8542C9DF80F30504ACE
:1010B00052F82330DAB29DF86530114689000A44AF
:1010C0005200D2B21CA90B4403F8542C9DF80F30E7
:1010D000474A52F8232013469B0013445B001A0A28
:1010E0009DF865300133D2B21CA90B4403F8542C8F
:1010F0009DF80F303E4A52F8232013469B001344BC
:101100005B001A0C9DF865300233D2B21CA90B4467
:1011100003F8542C9DF80F30354A52F8232013461B
:101120009B0013445B001A0E9DF865300333D2B266
:101130001CA90B4403F8542C9DF8653004338DF83A
:1011400065309DF80F20254913469B0013441B0171
:101150000B444C331B88DAB29DF865301146890088
:101160000A445200D2B21CA90B4403F8542C9DF837
:101170000F201A4913469B0013441B010B444C33A8
:101180001B881A4613469B0013445B001A129DF8F5
:1011900065300133D2B21CA90B4403F8542C9DF8DE
:1011A000653002338DF865301B9B03F100431B93C0
:1011B00007A89DF86520BDF8661004AB00930346B0
:1011C0001B9800F0DDFC0C2304AA07CA00F072FE95
:1011D00000BF1DB05DF804FB34DC03003C3AFE1F89
:1011E000583CFE1FE840FE1FCDCCCCCC1815FE1F8E
:1011F000202BFE1F00B59BB003468DF80F30002357
:1012000019939DF80F30002B03D1284B5B6919937C
:1012100006E09DF80F30012B02D1244BDB6B1993B4
:101220000023ADF8623000238DF861309DF80F2067
:101230001F4913469B0013441B010B4440331A689B
:101240009DF86130591C8DF86110D2B21AA90B4477
:1012500003F8482C9DF80F20154913469B001344B2
:101260001B010B4444331A689DF86130591C8DF8FA
:101270006110D2B21AA90B4403F8482C199B03F150
:101280000043199308A89DF86120BDF8621005ABD2
:1012900000930346199800F073FC0D2305AA07CAB2
:1012A00000F008FE00BF1BB05DF804FB34DC030057
:1012B0003C3AFE1F00B59BB003468DF80F3000236B
:1012C00019939DF80F30002B03D1144B1B6D19930C
:1012D00006E09DF80F30012B02D1104B5B6E199385
:1012E0000023ADF86230199B03F1004319930023EA
:1012F0008DF8613008A89DF86120BDF8621005AB3B
:1013000000930346199800F03BFC152305AA07CA71
:1013100000F0D0FD00BF1BB05DF804FB34DC03001F
:1013200000B59DB00346049103928DF817309DF8E7
:101330001730184600F063F91B900023ADF86A30AF
:1013400000238DF8693004238DF868309DF86930EA
:10135000049AD2B21CA90B4403F8482C9DF86920CA
:101360009DF8683013448DF869309DF86930039A10
:10137000D2B21CA90B4403F8482C9DF869209DF8B3
:10138000683013448DF869301B9B03F100431B93B5
:101390000AA89DF86920BDF86A1007AB00930346C0
:1013A0001B9800F0EDFB182307AA07CA00F082FD86
:1013B00000BF1DB05DF804FB84B003900291019260
:1013C000039B01331B781B021AB2039B1B781BB2D1
:1013D00013431BB29AB2029B1A80039B03331B7800
:1013E0001B021AB2039B02331B781BB213431BB2BE
:1013F0009AB2019B1A8000BF04B0704784B003907A
:1014000002910192039B07331B781A06039B063354
:101410001B781B041A43039B05331B781B021343E1
:10142000039A043212781A43029B1A60039B033317
:101430001B781A06039B02331B781B041A43039B79
:1014400001331B781B021343039A12781A43019B42
:101450001A6000BF04B0704784B0039002910192FB
:101460000093039B1A78029B1A70039B5A78019B86
:101470001A70039B9A78009B1A70039BDA78049B7E
:101480001A70039B1A79059B1A70039B5A79069B65
:101490001A70039B9A79079B1A70039BDA79089B51
:1014A0001A7000BF04B0704784B00390029101929B
:1014B000039B01331B781B021AB2039B1B781BB2E0
:1014C00013431BB29AB2029B1A80039B03331B780F
:1014D0001B021AB2039B02331B781BB213431BB2CD
:1014E0009AB2019B1A8000BF04B0704784B0039089
:1014F000029101920093039B1A78029B1A70039B3E
:1015000004331B781A06039B03331B781B041A430E
:10151000039B02331B781B021343039A0132127898
:101520001A43019B1A60039B5A79009B1A7000BFF3
:1015300004B0704784B00390029101920093039B22
:101540001A78029B1A70039B5A78019B1A70039BAE
:1015500003331B781B021AB2039B02331B781BB2A6
:1015600013431BB29AB2009B1A8000BF04B07047AD
:1015700084B0039002910192039B03331B781A06F7
:10158000039B02331B781B041A43039B01331B7814
:101590001B021343039A12781A43029B1A60039B9F
:1015A00007331B781A06039B06331B781B041A4368
:1015B000039B05331B781B021343039A04321278F2
:1015C0001A43019B1A6000BF04B0704782B00190BB
:1015D0000091019B03331B781A06019B02331B7891
:1015E0001B041A43019B01331B781B021343019A0E
:1015F00012781A43009B1A6000BF02B0704782B095
:1016000003468DF807309DF80730002B02D1074BB9
:101610001B6D07E09DF80730012B02D1034B5B6E79
:1016200000E00023184602B0704700BF34DC03001E
:1016300000B599B0584B1B6803F100431793002382
:101640008DF85B300023ADF85830544B5B79002B9C
:101650002AD1524B5A699DF85B30D2B218A90B447B
:1016600003F8482C4D4B5B691A0A9DF85B30013337
:10167000D2B218A90B4403F8482C484B5B691A0CEA
:101680009DF85B300233D2B218A90B4403F8482C02
:10169000424B5B691A0E9DF85B300333D2B218A936
:1016A0000B4403F8482C29E03C4B9A699DF85B30C9
:1016B000D2B218A90B4403F8482C384B9B691A0A7C
:1016C0009DF85B300133D2B218A90B4403F8482CC3
:1016D000324B9B691A0C9DF85B300233D2B218A9C9
:1016E0000B4403F8482C2D4B9B691A0E9DF85B3078
:1016F0000333D2B218A90B4403F8482C9DF85B3091
:1017000004338DF85B30254B5B7A1B01DAB2234B37
:101710001B7C9B00DBB203F00C03DBB21344D9B299
:101720001E4BDB7B03F00303DAB29DF85B30581CE1
:101730008DF85B000A44D2B218A90B4403F8482C78
:10174000164BDB799B00DBB203F00C03D9B2134BD1
:101750009B7B03F00303DAB29DF85B30581C8DF8D5
:101760005B000A43D2B218A90B4403F8482C06A820
:101770009DF85B20BDF8581003AB00930346179803
:1017800000F0FEF9162303AA07CA00F093FB00BF7E
:1017900019B05DF804FB00BF88DD0300883BFE1F25
:1017A00000B59BB003460291ADF80E3013468DF89C
:1017B0000D30374B5B6903F10043199300238DF81B
:1017C00063300023ADF860309DF86330029AD2B2E6
:1017D0001AA90B4403F8482C029B1A0A9DF863309F
:1017E0000133D2B21AA90B4403F8482C029B1A0CFD
:1017F0009DF863300233D2B21AA90B4403F8482C87
:10180000029B1A0E9DF863300333D2B21AA90B441F
:1018100003F8482C9DF8633004338DF863309DF84D
:101820006330BDF80E20D2B21AA90B4403F8482C3D
:10183000BDF80E301B0A9AB29DF863300133D2B264
:101840001AA90B4403F8482C9DF8633002338DF835
:1018500063309DF863305A1C8DF863209DF80D208D
:101860001AA90B4403F8482C08A89DF86320BDF87A
:10187000601005AB00930346199800F081F9172317
:1018800005AA07CA00F016FB00BF1BB05DF804FBF9
:1018900088DD030086B0039002910192009300233B
:1018A0008DF81730039B1B788DF817309DF8173093
:1018B00003F00F03DAB2029B1A709DF817301B0970
:1018C0008DF817309DF8173003F00703DAB2019B4B
:1018D0001A709DF81730DB088DF817309DF8173017
:1018E00003F00103DAB2009B1A70039B5B788DF85A
:1018F00017309DF8173003F00F03DAB2069B1A7009
:101900009DF817301B098DF817309DF8173003F03C
:101910000303DAB2079B1A70039B9B788DF817308C
:101920009DF8173003F00F03DAB2089B1A709DF888
:1019300017301B098DF817309DF8173003F00F038F
:10194000DAB2099B1A70039BDA780D9B1A70039B1D
:101950001B798DF817309DF8173003F00303DAB2C6
:101960000A9B1A709DF817309B088DF817309DF868
:10197000173003F00303DAB20B9B1A709DF817308F
:101980009B088DF817309DF8173003F00103DAB289
:101990000C9B1A7000BF06B0704784B00390029190
:1019A00001920093039B03331B781A06039B0233B7
:1019B0001B781B041A43039B01331B781B02134340
:1019C000039A12781A43009B1A60039B05331B7815
:1019D0001B021AB2039B04331B781BB213431BB2C6
:1019E0009AB2019B1A80039B06331B7803F0030312
:1019F000DAB2029B1A7000BF04B0704782B003468F
:101A00008DF807309DF80730002B05D10D4A13786B
:101A100043F01003137012E09DF80730012B05D13D
:101A2000084A137843F02003137008E09DF807304C
:101A3000022B04D1034A137843F04003137000BF14
:101A400002B070479C39FE1F82B0034600918DF8AA
:101A5000073000BF02B0704782B00346ADF80630D1
:101A600000BF02B0704710B485B001900091019B97
:101A70009B8819463F4A942303FB01F313441B78C8
:101A8000002B07D1019B1B6803F003033A4A12782D
:101A9000934215D0019B9B881946364A942303FB39
:101AA00001F313441B78012B0AD0019B9B88194634
:101AB000304A942303FB01F313441B78022B53D1C8
:101AC000019B9B881846009B5A682A49942303FB74
:101AD00000F30B4490331A60019B9B881946254AFA
:101AE000942303FB01F313440C3301221A700023E7
:101AF000ADF80E3018E0009B1A68BDF80E301A449D
:101B0000019B9B881C46BDF80E3010781949942221
:101B100002FB04F20A4413440D3302461A70BDF866
:101B20000E300133ADF80E30BDF80E20019B9B88BE
:101B300018461049942303FB00F30B4490331B68B1
:101B40009A42D8D3019B9B8819460A4A942303FBE7
:101B500001F313441B78012B06D1019B1B689BB238
:101B6000DBB29AB2054B1A8000BF05B05DF8044B9A
:101B7000704700BF282BFE1F9D39FE1F9E39FE1F98
:101B800084B0039001930B46ADF80A3013468DF8EC
:101B90000930049B039A1A60049BBDF80A209A80BE
:101BA000049B9DF809209A71049B019A9A6000BFDA
:101BB00004B0704700B587B003468DF807300B4678
:101BC0008DF8063013468DF8053000238DF8173058
:101BD000724B00221A709DF80730002B02D00123AF
:101BE000049301E002230493049900200AF0F6FB19
:101BF0000346002B0DD1694A13789DF8071061F355
:101C000000031370654A13789DF8071061F3C3034E
:101C100013709DF80630002B02D00123049301E0DD
:101C200002230493049901200AF0D8FB0346002BF9
:101C30000DD15A4A13789DF8061061F341031370D1
:101C4000564A13789DF8061061F3C30313709DF88C
:101C50000530002B02D00123049301E002230493FA
:101C6000049902200AF0BAFB0346002B0DD14B4A1F
:101C700013789DF8051061F382031370474A1378B7
:101C80009DF8051061F3C303137000238DF817301E
:101C900078E00023ADF8143061E0414B5A699DF8BB
:101CA00017309B0013441B68DA6BBDF814309B009F
:101CB00013441B681B88ADF80E30BDF80E30394A4E
:101CC000942101FB03F313449DF817201A70344B41
:101CD0005A699DF817309B0013441B68DA6BBDF8F6
:101CE00014309B0013441B685A69BDF80E3012680B
:101CF0002C49942000FB03F30B4404331A60284B57
:101D00005A699DF817309B0013441B68DA6BBDF8C5
:101D100014309B0013441A68BDF80E3052682149F4
:101D2000942000FB03F30B4408331A60BDF80E3017
:101D30001C4A942101FB03F313440C3300221A7054
:101D4000BDF80E30174A942101FB03F3134490337E
:101D500000221A60BDF814300133ADF81430104B76
:101D60005A699DF817309B0013441B6893F838306C
:101D70009BB2BDF814209A428FD39DF817300133DF
:101D80008DF817309DF81730022B82D9064B0022B0
:101D90001A7000BF07B05DF804FB00BF9C39FE1F3E
:101DA000BCF30300282BFE1F9D39FE1F08B502213E
:101DB00000200AF013FB0346002B12D10221012060
:101DC0000AF00CFB0346002B0BD1022102200AF083
:101DD00005FB0346002B04D1034A13786FF3C303BA
:101DE000137000BF08BD00BF9C39FE1F00B585B051
:101DF0006B4600221A605A609A6000238DF80F30FB
:101E00000FE09DF80F306A469B001A449DF80F3092
:101E1000114618460AF044FC9DF80F3001338DF846
:101E20000F309DF80F30022BEBD9009B022B05D110
:101E3000154A137843F01003137004E0124A137824
:101E40006FF304131370019B022B05D10E4A137814
:101E500043F02003137004E00B4A13786FF345132B
:101E60001370029B022B05D1074A137843F04003FD
:101E7000137004E0044A13786FF38613137000BFE5
:101E800005B05DF804FB00BF9C39FE1F82B003461D
:101E9000ADF80630BDF80630054A942101FB03F386
:101EA00013440C3300221A7000BF02B0704700BF09
:101EB000282BFE1F10B584B001AC84E807008DF814
:101EC00003309DF803309BB201AA114618460AF070
:101ED00019FD00BF04B010BD82B0034600928DF81A
:101EE00007300B468DF8063000BF02B0704700B5D2
:101EF00087B0034600928DF807300B46ADF80430EA
:101F0000BDF80430ADF816303B4B5B69002B6FD049
:101F1000394B5A699DF807309B0013441B680493A2
:101F2000049BDB8DBDF816209A4202D30023ADF846
:101F300016309DF80730022118460AF04FFA034682
:101F4000002B55D1BDF816209DF8073011461846D4
:101F50000AF0E8F99DF80730009918460AF03EFAB1
:101F600003468DF80F309DF80730022B2CD0022B42
:101F70003DDC002B02D0012B13D038E09DF80F3050
:101F8000002B08D1009B002B05D01C4A137843F08E
:101F9000010313702CE0194A13786FF300031370D8
:101FA00026E09DF80F30002B08D1009B002B05D0B8
:101FB000124A137843F00203137019E00F4A1378A2
:101FC0006FF34103137013E09DF80F30002B08D11D
:101FD000009B002B05D0094A137843F004031370CB
:101FE00006E0064A13786FF38203137000E000BF27
:101FF00000BF07B05DF804FBBCF303009C39FE1F73
:1020000084B003468DF8073000238DF80F309DF81B
:102010000730082B03D89DF807308DF80F309DF856
:102020000F30184604B0704700B585B0264B1B6BC7
:102030000293264B00221A70234BDB6A032B3FD1FD
:10204000029B002B3CD000F05FF9214B00221A606C
:10205000029B1B681E4A536001238DF80F301FE05E
:102060009DF80F3003F18043013B9B00029A13441B
:102070001A689DF80F300132154941F833209DF858
:102080000F309B00029A1A449DF80F3012681049D5
:10209000DB000B445A609DF80F3001338DF80F3090
:1020A0009DF80F30022BDBD907481FF0E7F81FF02F
:1020B00095FA0190019B012B02D1044B01221A7069
:1020C00000BF05B05DF804FBF8FA0300A039FE1F5D
:1020D000A439FE1F024B00221A7000BF704700BFD8
:1020E000A039FE1F00B585B001900091019800F065
:1020F000B7F80390039B002B0CD1094A019BDB002E
:1021000013445A680649019B51F83330D31A5A1CBC
:10211000009B1A60039B184605B05DF804FB00BFE6
:10212000A439FE1F00B589B0019001230793164B17
:102130001B78002B22D0019800F092F80690069BA5
:10214000002B1BD1114A019B52F8333005930F4AE3
:10215000019BDB0013445A68059BD31A0133049397
:10216000049905981FF00AF903468DF80F309DF881
:102170000F30002B02D100F0ABF80790079B1846F8
:1021800009B05DF804FB00BFA039FE1FA439FE1F93
:1021900000B589B003900291019200930123079347
:1021A000134B1B78002B1DD0009A0299039800F066
:1021B00064F80346002B15D10E4A039B52F83330C6
:1021C000029A13440693009A019906981FF066F943
:1021D00003468DF817309DF81730002B02D100F020
:1021E00077F80790079B184609B05DF804FB00BF1D
:1021F000A039FE1FA439FE1F00B589B003900291DB
:102200000192009301230793134B1B78002B1DD0E1
:10221000009A0299039800F030F80346002B15D17C
:102220000E4A039B52F83330029A13440693009AE5
:10223000019906981FF008FA03468DF817309DF8AB
:102240001730002B02D100F043F80790079B184687
:1022500009B05DF804FB00BFA039FE1FA439FE1FC2
:1022600084B0019000230393019B022B01D9012329
:102270000393039B184604B0704700B589B00390E0
:1022800002910192002307930398FFF7E9FF07905B
:10229000079B012B14D00D4A039B52F83330069351
:1022A0000A4A039BDB0013445B680593069A029B72
:1022B0001A44019B1344059A9A4201D201230793C1
:1022C000079B184609B05DF804FB00BFA439FE1F48
:1022D00000B585B0012303931FF0ACFA1FF07EF91F
:1022E0000290029B012BF7D11FF092F90190019B04
:1022F000002B02D10023039301E001230393039BEE
:10230000184605B05DF804FB034B1B6A024A23F034
:102310004063136200BF7047002008E000B583B03F
:10232000144839F009F800238DF807300EE09DF8C5
:102330000730114A0021D1549DF807300F4A00217F
:10234000D1549DF8073001338DF807309DF80730E0
:10235000012BECD90A4B00221A60094B00225A606B
:10236000074B00229A60064B0022DA6000BF03B0E0
:102370005DF804FBB81C0400CC39FE1FD039FE1FE9
:10238000BC39FE1F08B50223044A0549012039F073
:10239000F9F9002039F0FEF800BF08BDCC39FE1F66
:1023A000D039FE1F08B50223044A0549002039F040
:1023B000E9F9032039F0EEF800BF08BDCC39FE1F63
:1023C000D039FE1F08B50223044A0549002039F020
:1023D000D9F9012039F0DEF800BF08BDCC39FE1F65
:1023E000D039FE1F08B50223044A0549002039F000
:1023F000C9F9022039F0CEF800BF08BDCC39FE1F64
:10240000D039FE1F00BF7047074B1B781B021AB262
:10241000054B5B781BB213431BB29BB21A46034BAE
:10242000DA6000BF704700BFCC39FE1FBC39FE1F09
:10243000074B1B781B021AB2054B5B781BB2134388
:102440001BB29BB21A46034B1A6000BF704700BF15
:10245000CC39FE1FBC39FE1F074B1B781B021AB27A
:10246000054B5B781BB213431BB29BB21A46034B5E
:102470005A6000BF704700BFCC39FE1FBC39FE1F39
:10248000074B1B781B021AB2054B5B781BB2134338
:102490001BB29BB21A46034B9A6000BF704700BF45
:1024A000CC39FE1FBC39FE1F00B583B003468DF842
:1024B00007309DF80730002B0BD000210E2015F0BF
:1024C000DFFE0021022015F0DBFE084B01221A700E
:1024D00008E007483AF034FB064B00221A70064B1E
:1024E00001221A7000BF03B05DF804FBD439FE1F4F
:1024F000701D0400D239FE1FD339FE1F00B583B012
:1025000003468DF807309DF80730002B0BD00021D3
:102510000E2015F0B5FE0021022015F0B1FE084B8B
:1025200000221A7008E000203AF015FB054B00224B
:102530001A70054B00221A7000BF03B05DF804FB4F
:10254000D439FE1FD239FE1FD339FE1F00B583B028
:1025500003460A468DF8073013468DF806309DF87D
:102560000630002B06D09DF8073019460E2015F0D6
:1025700087FE02E001203AF0EEFA00BF03B05DF8FA
:1025800004FB00B583B003468DF807309DF8073093
:10259000002B08D00121022015F072FE002102203C
:1025A00015F06EFE0FE00A4B1B78042B05D93AF0AC
:1025B000DEFA074B00221A7005E0054B1B78013349
:1025C000DAB2034B1A7000BF03B05DF804FB00BF22
:1025D000D239FE1F0F4B00221A700F4B00229A8037
:1025E0000D4B00221A600C4B00229A810A4B0022EC
:1025F0005A62094B00221A62074B4FF6FF729A8209
:10260000054B4FF0FF321A61034B4FF6FF729A836E
:1026100000BF7047D839FE1FDC39FE1F0D4B00226A
:102620001A700D4B00229A800B4B00221A600A4B45
:1026300000229A81084B00225A62074B00221A623C
:10264000054B4FF6FF729A82034B4FF0FF321A612F
:1026500000BF7047D839FE1FDC39FE1F08B50E4B8E
:10266000DB7803F00803DBB2002B08D00B4B002211
:102670009A800A4B00221A60084B00229A8100F0CF
:102680000FF800F04FFB00F0D7FB00F005FC00F066
:102690003BFC00BF08BD00BFF43AFE1FDC39FE1F43
:1026A00084B0184B1B68002B07D0164B1B68012BFE
:1026B00003D0144B1B68052B09D1134B00229A82BF
:1026C000114B00221A61104B00229A8317E00F4B26
:1026D000D3F8783303930D4BD3F85C3302930B4B51
:1026E000D3F840330193039B9AB2074B9A82064A70
:1026F000029B1361019B9AB2034B9A8300BF00BFF8
:1027000004B07047583CFE1FDC39FE1F1815FE1F31
:10271000104B1B78C3F38013D9B20F4A137861F3BF
:10272000000313700C4B1B78C3F34003DAB2094B60
:102730001B78C3F3C013DBB21343DBB2002B14BF0F
:1027400001230023D9B2044A137861F341031370C3
:1027500000BF7047F43AFE1FDC39FE1F0F4BDB78D9
:1027600003F00103DBB2002B09D00D4B5B68632B38
:1027700008D80B4B5B680133094A536002E0084BF1
:1027800000225A60064B5B68632B04D9054A137913
:1027900043F02003137100BF704700BF1C3CFE1FB5
:1027A000083AFE1FDC39FE1F00B58BB0464BD3F84C
:1027B00098320893444BD3F8B4320793424BD3F882
:1027C000D0320693404BD3F8EC3205933E4BD3F80E
:1027D000083304933C4BD3F8243303930023099329
:1027E0003A4B93F82320394B93F873309A4204D92B
:1027F000364B93F82330099303E0344B93F873304E
:102800000993334B9868334B1968069B0093079BD9
:10281000089A00F067F803462E4A13602E4B196899
:10282000039B0093049B059A099800F05BF803460C
:10283000294A1360284B1A68264B1B68934238BFFD
:102840001346264A1360254B1B68032B06D0032B27
:102850002AD8012B1DD0022B10D025E0204A137955
:1028600043F0080313711E4A137B6FF38203137343
:102870001B4A137B6FF34103137320E0184A137B49
:1028800043F004031373164A137B6FF3410313736E
:1028900015E0134A137B43F002031373104A137BB2
:1028A0006FF3820313730AE00D4A137B6FF3820305
:1028B00013730B4A137B6FF34103137300BF00BF05
:1028C0000BB05DF804FB00BF1815FE1F3C3AFE1F5D
:1028D000E840FE1F343AFE1F303AFE1F043AFE1F46
:1028E000DC39FE1F86B00390029101920093029B97
:1028F0000593029B032B38D801A252F823F000BFA6
:10290000112900001F2900003D2900005B2900005B
:10291000039A019B9A422AD90123059327E0039A3F
:10292000009B9A4202D90223059322E0019B053BBA
:10293000039A9A421DD2002305931AE0039A069B3C
:102940009A4202D90323059315E0009B053B039AA5
:102950009A4210D2012305930DE0069B053B039A92
:102960009A420AD20223059307E000BF06E000BFA7
:1029700004E000BF02E000BF00E000BF059B184676
:1029800006B070471D4B9B7803F00403DBB2002BAD
:1029900009D01B4B9B68632B08D8194B9B680133EC
:1029A000174A936002E0164B00229A60144B9B6812
:1029B000632B04D9134A137943F0400313710F4B6F
:1029C0009B7803F00803DBB2002B09D00C4BDB68CB
:1029D000632B08D80A4BDB680133094AD36002E055
:1029E000074B0022DA60064BDB68632B04D9054AEB
:1029F000137943F08003137100BF7047E040FE1F5E
:102A0000083AFE1FDC39FE1F274B9B7803F01003AA
:102A1000DBB2002B0ED0254B5B69632B04D8234B14
:102A20005B690133214A5361214A537B43F004031C
:102A3000537307E01D4B00225A611D4A537B6FF30D
:102A400082035373194B5B69632B04D9184A53797A
:102A500043F002035371144B9B7803F02003DBB265
:102A6000002B0ED0114B9B69632B04D80F4B9B6935
:102A700001330E4A93610E4A537B43F008035373AC
:102A800007E00A4B00229A61094A537B6FF3C303A4
:102A90005373064B9B69632B04D9054A537943F062
:102AA0000403537100BF7047E040FE1F083AFE1F49
:102AB000DC39FE1F82B0134BD3F8C4350193124B9F
:102AC0009B7803F04003DBB2002B0AD00F4BDB698D
:102AD000019A9A4208D90D4BDB6901330B4AD36145
:102AE00002E00A4B0022DA61084BDB69019A9A4244
:102AF00004D8074A537943F00803537100BF02B06A
:102B0000704700BF1815FE1FE040FE1F083AFE1F69
:102B1000DC39FE1F0F4BDB7803F00203DBB2002B26
:102B200009D00D4B1B69632B08D80B4B1B69013374
:102B3000094A136102E0084B00221A61064B1B6927
:102B4000632B04D9054A537943F00103537100BF45
:102B5000704700BF1C3CFE1F083AFE1FDC39FE1FF9
:102B6000054B1B79C3F38003D9B2044A537961F34F
:102B70004513537100BF7047E040FE1FDC39FE1F54
:102B8000054BDB68002B04D0044A137943F0100393
:102B9000137100BF704700BF783CFE1FDC39FE1F79
:102BA000054B5B78C3F30003D9B2044A137B61F38E
:102BB0008613137300BF7047F43AFE1FDC39FE1F03
:102BC0000F4B9B7803F00203DBB2002B09D00D4BB7
:102BD0005B6A632B08D80B4B5B6A0133094A53626B
:102BE00002E0084B00225A62064B5B6A632B04D951
:102BF000054A537B43F00203537300BF704700BF85
:102C0000E040FE1F083AFE1FDC39FE1F82B0134B66
:102C1000D3F8A8350193124B9B7803F00103DBB284
:102C2000002B0AD00F4B1B6A019A9A4208D90D4B10
:102C30001B6A01330B4A136202E00A4B00221A623C
:102C4000084B1B6A019A9A4204D8074A537943F009
:102C50001003537100BF02B0704700BF1815FE1F6C
:102C6000E040FE1F083AFE1FDC39FE1F0A4B1B78AE
:102C7000C3F3C003D9B2094A537B61F304135373FE
:102C8000054B1B78C3F38003D9B2044A537B61F32D
:102C90004513537300BF70475C3CFE1FDC39FE1FB9
:102CA000094B9B79002B14BF01230023DBB283F077
:102CB0000103DBB203F00103D9B2044A537B61F391
:102CC0008613537300BF7047E03AFE1FDC39FE1FC6
:102CD0000A4B1B78C3F34003D9B2094A137B61F353
:102CE000C7131373054B1B78C3F30003D9B2044A0F
:102CF000137B61F3C303137300BF70475C3CFE1F7B
:102D0000DC39FE1F054BDB78C3F3C003D9B2044A9C
:102D1000137861F34103137000BF7047E040FE1F5A
:102D2000DC39FE1F00B583B000238DF80730002387
:102D3000009314E09DF807101B48009A13469B006F
:102D400013441B01034406331B780B43002B14BFB1
:102D5000012300238DF80730009B01330093009B73
:102D6000012BE7D9114A137B9DF8071061F300038B
:102D70001373FFF719FDFFF7ABFFFFF711FFFFF725
:102D80001FFFFFF743FFFFF771FFFFF789FF074BB7
:102D90009A89064B9B8B13409AB2044B9A8100BFD1
:102DA00003B05DF804FB00BF3C3AFE1FDC39FE1F98
:102DB00082B000238DF8073000238DF80630002301
:102DC00000931FE01A49009A13469B0013441B010D
:102DD0000B4404331B88032B03D901238DF80730E0
:102DE0000DE01349009A13469B0013441B010B444A
:102DF00004331B88002B02D001238DF80630009B82
:102E000001330093009B012BDCD99DF80730002B88
:102E100004D0084A137943F004031371054A537B25
:102E20009DF8061061F30003537300BF02B07047B2
:102E30003C3AFE1FDC39FE1F08B5FFF763FFFFF7C2
:102E400067FCFFF7B5FFFFF789FCFFF79BFDFFF776
:102E5000DBFDFFF72FFEFFF75DFEFFF781FEFFF7BB
:102E60008FFE0C4B1A680B4B1B691340094A136009
:102E7000084B9A88074B9B8A13409AB2054B9A805D
:102E8000044B9A89034B9B8B13409AB2014B9A8156
:102E900000BF08BDDC39FE1F194B9B88002B03D1F6
:102EA000174B9B79002B07D0164A92F8243043F039
:102EB000010382F8243006E0124A92F824306FF3BE
:102EC000000382F824300E4BB3F85430002B04D1A9
:102ED0000B4B93F85630002B07D00A4A92F8243057
:102EE00043F0020382F8243007E0064A92F82430C7
:102EF0006FF3410382F8243000BF00BF704700BF6A
:102F00003C3AFE1FDC39FE1F0E4B9B88002B03D082
:102F10000C4B03221A6212E00A4B1B68002B03D0F1
:102F2000084B02221A620AE0064B9B89002B03D051
:102F3000044B01221A6202E0024B00221A6200BF17
:102F4000704700BFDC39FE1F00B583B000238DF849
:102F5000073009E09DF80730184600F044FF9DF85F
:102F6000073001338DF807309DF80730012BF1D978
:102F7000064B00221A60054B00229A71034B002277
:102F80009A8000BF03B05DF804FB00BFE03AFE1F6B
:102F900000B583B000238DF8073009E09DF80730B5
:102FA000184600F020FF9DF8073001338DF80730F8
:102FB0009DF80730012BF1D900BF00BF03B05DF8C9
:102FC00004FB00B583B000238DF807301C4B9B88B1
:102FD000002B04D11A4BB3F85430002B03D001233B
:102FE0008DF8073002E000238DF80730154BDB78B1
:102FF00003F00803DBB2002B03D19DF80730002B50
:1030000019D0114B1B68002B02D0012B07D013E005
:103010000020FEF74FF90C4B01221A600CE0012052
:10302000FEF748F9084B00221A60064AD3786FF37E
:10303000C303D37000E000BF00BF03B05DF804FB22
:103040003C3AFE1FF43AFE1FEC3AFE1F00B583B077
:1030500001900B468DF803309DF803201849134664
:103060009B0013441B010B44103300221A809DF86F
:103070000320134913469B0013441B010B441233D6
:1030800000221A809DF8032013469B0013441B0165
:1030900008330B4A134403F108019DF8032013463B
:1030A0009B0013441B010833054A13440A331A4694
:1030B0000198FEF781F900BF03B05DF804FB00BF83
:1030C0003C3AFE1F00B583B001900B468DF80330EB
:1030D0009DF80320174913469B0013441B010B4422
:1030E000143300221A609DF80320124913469B00F6
:1030F00013441B010B44183300221A609DF803206F
:1031000013469B0013441B0110330A4A1344191D34
:103110009DF8032013469B0013441B011033054AFE
:10312000134408331A460198FEF768F900BF03B04C
:103130005DF804FB3C3AFE1F00B591B007900B46CA
:103140008DF81B3000230F9300230E9300230D9363
:1031500000230C9300230B9300230A93002309936D
:10316000002308930DA80EAA0FA908AB049309AB7E
:1031700003930AAB02930BAB01930CAB0093034692
:103180000798FEF769F90F9BDBB29DF81B20323BD5
:10319000D8B23B4913469B0013441B010B441C331C
:1031A00002461A700E9BDBB29DF81B20323BD8B250
:1031B000334913469B0013441B010B441D33024645
:1031C0001A700D9BDBB29DF81B20323BD8B22C4904
:1031D00013469B0013441B010B441E3302461A7016
:1031E0000C9BDBB29DF81B20323BD8B2244913461E
:1031F0009B0013441B010B441F3302461A700B9BA8
:10320000DBB29DF81B20323BD8B21D4913469B0010
:1032100013441B010B44203302461A700A9BDBB295
:103220009DF81B20323BD8B2154913469B0013442E
:103230001B010B44213302461A70099BDBB29DF837
:103240001B20323BD8B20E4913469B0013441B018E
:103250000B44223302461A70089BDBB29DF81B20F8
:10326000323BD8B2064913469B0013441B010B4462
:10327000233302461A7000BF11B05DF804FB00BF93
:103280003C3AFE1F00B583B001900B468DF8033029
:103290009DF80320174913469B0013441B010B4460
:1032A0000C3300221A809DF80320124913469B001C
:1032B00013441B010B440E3300221A809DF8032097
:1032C00013469B0013441B0108330A4A1344191D7B
:1032D0009DF8032013469B0013441B010833054A45
:1032E000134406331A460198FEF7DEF800BF03B018
:1032F0005DF804FB3C3AFE1F00B585B001900B461B
:103300008DF8033000238DF80F3000238DF80E3038
:103310009DF803201C4913469B0013441B010B44DA
:10332000283300221A609DF8032013469B001344A3
:103330001B012033144A134403F108020DF10E035C
:103340000DF10F010198FEF7D1F89DF80F309DF8AF
:10335000032018460C4913469B0013441B010B44E1
:10336000243318609DF80E309DF803201846064956
:1033700013469B0013441B010B442C33186000BF01
:1033800005B05DF804FB00BF3C3AFE1F00B585B0F8
:1033900001900B468DF8033000238DF80F30002389
:1033A0008DF80E309DF803201C4913469B001344F2
:1033B0001B010B443C3300221A809DF80320134666
:1033C0009B0013441B013833144A134404330DF19A
:1033D0000E020DF10F010198FEF7ACF89DF80F30C9
:1033E0009DF8032018460D4913469B0013441B010A
:1033F0000B44343318609DF80E309DF803201846B6
:10340000064913469B0013441B010B4438331860D4
:1034100000F05CFC00BF05B05DF804FB3C3AFE1F09
:1034200000B585B001900B468DF80330002303935F
:103430000023029302AA03AB19460198FEF798F8FD
:103440009DF803209DF80830C3F30003D9B2CF489C
:1034500013469B0013441B01C218137961F3000348
:1034600013719DF803209DF80830C3F38003D9B28F
:10347000C64813469B0013441B01C218137961F31D
:10348000410313719DF803209DF80830C3F34003F6
:10349000D9B2BE4813469B0013441B01C2181379CE
:1034A00061F3820313719DF803209DF80830C3F384
:1034B000C003D9B2B54813469B0013441B01C21880
:1034C000137961F3C30313719DF80830C3F300133C
:1034D000DAB29DF80830C3F34013DBB21343DBB21A
:1034E0009DF80320002B14BF01230023D9B2A74865
:1034F00013469B0013441B01C218137961F3041394
:1035000013719DF80830C3F38013DAB29DF80830C8
:10351000C3F3C013DBB21343DBB29DF80320002BCF
:1035200014BF01230023D9B2984813469B001344CB
:103530001B01C218137961F3451313719DF8032021
:103540009DF80930C3F30003D9B2904813469B009D
:1035500013441B01C218137961F3861313719DF88C
:1035600003209DF80930C3F34003D9B287481346BE
:103570009B0013441B01C218137961F3C713137125
:103580009DF80930C3F38003DAB29DF80930C3F324
:10359000C003DBB21343DBB29DF80320002B14BF42
:1035A00001230023D9B2794813469B0013441B0121
:1035B000C218537961F3000353719DF80930C3F3C6
:1035C0000013DAB29DF80930C3F34013DBB21343A2
:1035D000DAB29DF80930C3F38013DBB21343DBB2D8
:1035E0009DF80320002B14BF01230023D9B26748A4
:1035F00013469B0013441B01C218537961F3410326
:1036000053719DF803209DF80C30C3F34003D9B2E9
:103610005E4813469B0013441B01C218537961F3A3
:10362000820353719DF803209DF80C30C3F3C0034F
:10363000D9B2564813469B0013441B01C218537954
:1036400061F3C30353719DF80C30C3F38013DAB2F6
:103650009DF80C30C3F3C013DBB21343DBB29DF80B
:103660000320002B14BF01230023D9B2474813467F
:103670009B0013441B01C218537961F30413537167
:103680009DF80D30C3F30003DAB29DF80D30C3F39B
:103690004003DBB21343DBB29DF80320002B14BFC1
:1036A00001230023D9B2394813469B0013441B0160
:1036B000C218537961F3451353719DF80D30C3F36C
:1036C0000013DAB29DF80D30C3F34013DBB213439D
:1036D000DAB29DF80D30C3F38013DBB21343DAB2D4
:1036E0009DF80D30C3F3C013DBB21343DAB29DF87B
:1036F0000E30C3F30003DBB21343DAB29DF80E3091
:10370000C3F34003DBB21343DAB29DF80E30C3F3C8
:103710008003DBB21343DAB29DF80D30C3F3C0036C
:10372000DBB21343DAB29DF80D30C3F38003DBB292
:103730001343DAB29DF80A30C3F34003DBB21343FC
:10374000DAB29DF80A30C3F38003DBB21343DAB276
:103750009DF80A30C3F3C003DBB21343DAB29DF81D
:103760000A30C3F34013DBB21343DAB29DF80A30D8
:10377000C3F30013DBB21343DAB29DF80A30C3F38C
:103780000003DBB21343DAB202E000BF3C3AFE1F93
:103790009DF80C30C3F34013DBB21343DAB29DF84B
:1037A0000C30C3F30013DBB21343DBB29DF80320EC
:1037B000002B14BF01230023D9B20E4813469B00EF
:1037C00013441B01C218537961F3861353710A4BDA
:1037D0001B68022B0AD19DF80320064913469B0063
:1037E00013441B010B44043300221A8000BF05B0B0
:1037F0005DF804FB3C3AFE1F583CFE1F00B585B047
:1038000001900B468DF803300023039303AB194658
:103810000198FDF7DBFE9DF803209DF80C30C3F303
:103820000003D9B25A4813469B0013441B01C21827
:10383000937961F3000393719DF803209DF80C3098
:10384000C3F34003D9B2524813469B0013441B01F3
:10385000C218937961F3410393719DF803209DF899
:103860000C30C3F38003D9B2494813469B0013447C
:103870001B01C218937961F3820393719DF80320B1
:103880009DF80C30C3F3C003D9B2414813469B00E6
:1038900013441B01C218937961F3C30393719DF81C
:1038A00003209DF80C30C3F30013D9B238481346F7
:1038B0009B0013441B01C218937961F304139371A5
:1038C0009DF803209DF80C30C3F34013D9B2304863
:1038D00013469B0013441B01C218937961F34513EF
:1038E00093719DF803209DF80C30C3F38013D9B277
:1038F000274813469B0013441B01C218937961F3B8
:10390000861393719DF80D30C3F38003DAB29DF8EE
:103910000D30C3F3C003DBB21343DAB29DF80C30B1
:10392000C3F3C013DBB21343DAB29DF80D30C3F317
:103930000003DBB21343DAB29DF80D30C3F340034A
:10394000DBB21343DBB29DF80320002B14BF01232D
:103950000023D9B20E4813469B0013441B01C21822
:10396000937961F3C71393710A4B1B68022B0AD139
:103970009DF80320064913469B0013441B010B448A
:10398000063300221A7000BF05B05DF804FB00BFCB
:103990003C3AFE1F583CFE1F84B003468DF80730AA
:1039A00000238DF80E3000238DF80D3000238DF8A4
:1039B0000F3014E09DF80F20174913469B00134465
:1039C0001B010B441B789DF807209A4202D101236A
:1039D0008DF80D309DF80F3001338DF80F309DF8C4
:1039E0000F30022B06D89DF80D3083F00103DBB2B7
:1039F000002BDFD19DF80F30022B03D9FF238DF868
:103A00000E3004E09DF80F30013B8DF80E309DF82C
:103A10000E30184604B070473C3AFE1F84B003468F
:103A20008DF8073000238DF80F302CE09DF80F2023
:103A30009DF807309A420BD19DF80F201649134686
:103A40009B0013441B010B44083300221A6015E04D
:103A50009DF80F20104913469B0013441B010B4493
:103A600008331B689DF80F2003F10A010A4813462A
:103A70009B0013441B010344083319609DF80F3069
:103A800001338DF80F309DF80F30012BCED900BFD8
:103A900000BF04B0704700BF3C3AFE1F044B002239
:103AA00083F84E20024B002283F89E2000BF70470F
:103AB0003C3AFE1F82B0044BD3F84C370193019B74
:103AC0005B08184602B070471815FE1F00B583B09A
:103AD0002A4BD3F8D4310193FFF7ECFF0090284B29
:103AE000012283F84E20264A019B9364009B9AB2E0
:103AF000234BA3F84C20224B02221A64204B0822AD
:103B00005A641F4B012283F89E201D4A019BC2F874
:103B10009830009B9AB21A4BA3F89C20184B0222B3
:103B2000C3F89020164B0222C3F89420144B9A6AD3
:103B3000134B9B6C9A4211D2114B9A6F104BD3F8D6
:103B400098309A420AD20F4AD37843F02003D370B8
:103B50000C4AD3786FF30413D3700AE0094AD37880
:103B60006FF34513D370074AD37843F01003D37033
:103B700000BF00BF03B05DF804FB00BF1815FE1FB7
:103B80003C3AFE1F383AFE1F82B02B4B1B685B0885
:103B90000193294B9B885B089BB20093274B012222
:103BA00083F84E20254A019B9364009B9AB2234BD5
:103BB000A3F84C20214B01221A64204B07225A649F
:103BC0001E4B012283F89E201C4A019BC2F89830AC
:103BD000009B9AB2194BA3F89C20184B0122C3F802
:103BE0009020164B0722C3F89420144B9A6A134B6B
:103BF0009B6C9A4211D2114B9A6F104BD3F89830AC
:103C00009A420AD20E4AD37843F04003D3700C4A4A
:103C1000D3786FF30413D3700AE0094AD3786FF3B3
:103C20008613D370064AD37843F01003D37000BFD5
:103C300000BF02B0704700BFE03AFE1F3C3AFE1FD3
:103C4000383AFE1F08B51D4B1B68032B12D11C4BC5
:103C50009B88002B0ED11A4BB3F85430002B09D19E
:103C6000184B1B7903F00203DBB2002B02D0FFF7E5
:103C70002DFF20E0114B1B68042B12D1114B1B7937
:103C800003F00203DBB2002B0BD00D4B9B88002B03
:103C900007D10B4BB3F85430002B02D1FFF774FF60
:103CA00009E0094B1B78002B02D0FFF7F7FE02E07A
:103CB000FFF7F4FEFFE700BF08BD00BF583CFE1F42
:103CC0003C3AFE1FE040FE1FE83AFE1F1F4B1B68F8
:103CD000032B10D11E4B5B6B022B04D11C4BD3F872
:103CE0008430022B03D01B4B01221A702CE0194B9D
:103CF00000221A7028E0154B1B68042B10D1144BBE
:103D00005B6B012B04D1124BD3F88430012B03D011
:103D1000104B01221A7017E00E4B00221A7013E0AC
:103D20000A4B1B68022B0FD1094B5B6A022B03D095
:103D3000074B5B6F022B03D1064B01221A7003E085
:103D4000044B00221A70FFE700BF7047583CFE1F6B
:103D50003C3AFE1FE83AFE1F84B01A4B1B68042B46
:103D600029D1194B5A8A184BB3F862301344ADF875
:103D70000E30154BDB891A46134BB3F85E301344F3
:103D80005B08ADF80C30114B9B8802930F4B1B68FE
:103D90000193BDF80E30029A9A4208D8BDF80C3053
:103DA000019A9A4203D90A4B01221A6006E0084B95
:103DB00002221A6002E0064B00221A6000BF04B023
:103DC000704700BF583CFE1F3C3AFE1FE03AFE1F02
:103DD000DC3AFE1F08B500F05DF9FFF733FFFFF78F
:103DE000BBFF00BF08BD82B003468DF807309DF8C9
:103DF00007209DF807300133D8B2A54913469B0030
:103E000013441B010B4402461A709DF80720A04979
:103E100013469B0013441B010B44083300221A6015
:103E20009DF807209A4913469B0013441B010B443D
:103E3000043300221A609DF80720954913469B0021
:103E400013441B010B440C3300221A809DF80720F9
:103E50008F4913469B0013441B010B440E33002271
:103E60001A809DF807208A4913469B0013441B01C2
:103E70000B44103300221A809DF807208449134612
:103E80009B0013441B010B44123300221A809DF83F
:103E900007207F4913469B0013441B010B44143336
:103EA00000221A609DF80720794913469B001344AD
:103EB0001B010B44183300221A609DF80720744937
:103EC00013469B0013441B010B441C3300221A7041
:103ED0009DF807206E4913469B0013441B010B44B9
:103EE0001D3300221A709DF80720694913469B0074
:103EF00013441B010B441E3300221A709DF8072047
:103F0000634913469B0013441B010B441F330022DB
:103F10001A709DF807205E4913469B0013441B014D
:103F20000B44203300221A709DF80720584913468D
:103F30009B0013441B010B44213300221A709DF88F
:103F40000720534913469B0013441B010B442233A3
:103F500000221A709DF807204D4913469B00134418
:103F60001B010B44233300221A709DF80720484997
:103F700013469B0013441B010B442433FF221A6099
:103F80009DF80720424913469B0013441B010B4434
:103F9000283300221A609DF807203D4913469B00F4
:103FA00013441B010B442C3300221A609DF8072098
:103FB000374913469B0013441B010B443033002246
:103FC0001A709DF80720324913469B0013441B01C9
:103FD0000B44343300221A609DF807202C49134605
:103FE0009B0013441B010B44383300221A609DF8D8
:103FF0000720274913469B0013441B010B443C3305
:1040000000221A809DF80720214913469B00134483
:104010001B010B443E3300221A709DF807201C49F7
:1040200013469B0013441B010B44403301221A60CA
:104030009DF80720164913469B0013441B010B44AF
:10404000443307221A609DF80720114913469B004C
:1040500013441B010B44483300221A609DF80720CB
:104060000B4913469B0013441B010B444C330022A5
:104070001A809DF80720064913469B0013441B0134
:104080000B444E3300221A7000BF02B0704700BFCD
:104090003C3AFE1F84B0224B1B68022B39D1204BC7
:1040A0009B68204AA2FB0323DB0803931C4B9B89DC
:1040B0001C4AA2FB0323DB089BB202931A4BD3F8E2
:1040C00044320193184BD3F87C320093039B202B8E
:1040D00014D8039B172B11D9029BB3F5B37F0DD2D4
:1040E000029B312B0AD9114A039B1360029B9AB29F
:1040F0000E4B9A800D4B01229A710DE00B4A019BE9
:104100001360009B9AB2094B9A80084B00229A7167
:1041100002E0064B01229A7100BF04B0704700BF55
:104120006C3BFE1FCDCCCCCC1815FE1FE03AFE1F19
:1041300000B583B0074B4FF0FF321A60054B4FF0CC
:10414000FF325A60012201210120FDF733FD0023D7
:1041500001930EE0A43BFE1FB34A019B002142F8ED
:104160002310B24A019B002142F82310019B013326
:104170000193019B062BEFD900F0A4F9AC4B002270
:104180001A60AC4B00229A81AA4B00229A73A94B69
:104190000022DA73A74B00221A71A64B00225A7133
:1041A000A44B00229A60A34B00221A74A14B002258
:1041B0005A74A04B00229A749F4A13786FF300033D
:1041C00013709D4A13786FF3410313709A4A137862
:1041D0006FF382031370984B00225A80964B002293
:1041E0005A60964A13786FF300031370934A13785A
:1041F0006FF341031370914A13786FF382031370C6
:104200008E4A13786FF3C30313708C4A13786FF3DD
:1042100004131370894B00221A71884B00225A71C3
:10422000864B00229A71854B0022DA71834B002263
:104230001A72824B00225A72804B00229A727F4B74
:104240000022DA727D4B00221A737C4B00225A73D3
:104250007A4B00229A73794B0022DA73774B002253
:104260001A74764B00225A61744B00229A61744B87
:1042700000221A80724B00225A80714B00229A80D1
:104280006F4B0022DA806E4B00221A816C4B0022A9
:10429000DA606B4B00221A616A4B00221A70694B7C
:1042A00000225A70674B00229A70664B00225A60B7
:1042B000654B00221A60644B00229A80634B1B6896
:1042C000614A9360604B0022DA605F4B00221A6102
:1042D0005D4B00225A615C4B00229A615A4B0022CE
:1042E0001A77594B00225A77574B00229A77564B30
:1042F0000022DA77564B5B69DBB21A46554B1A60DF
:10430000544B00225A60534B00229A60514B0022BA
:10431000DA60504B00221A744F4B00221A700121B0
:10432000572013F0ADFF4D4B1B789BB2012219466D
:104330000020FDF7DCFD494B1B789BB2012219469A
:104340000120FDF7D4FD454B1B789BB20122194695
:104350000220FDF7CCFD424B1B78C3F30003D9B21A
:10436000334A937861F3820393703D4B1B78C3F318
:104370004003D9B22E4A937861F3C3039370384B4C
:104380001B78C3F38003D9B2294A937861F30413ED
:104390009370334B1B78C3F3C003D9B2244A93788C
:1043A00061F341039370224B9B78C3F38003DBB22C
:1043B000002B14BF01230023DBB283F00103DBB227
:1043C00003F00103D9B21A4A137861F38203137020
:1043D000174B9B78C3F3C003DBB2002B14BF012340
:1043E0000023DBB283F00103DBB203F00103D9B297
:1043F0000F4A137861F3C30313700D4B9B78C3F31B
:104400000013DBB2002B14BF01230023DBB283F0C7
:104410000103DBB203F00103D9B2054A137861F35B
:10442000041313701EE000BFAC3BFE1FC83BFE1F11
:10443000F43AFE1F6C3BFE1F803BFE1F883BFE1FB5
:10444000143BFE1F283BFE1F303BFE1F583CFE1F47
:104450001815FE1F503BFE1FFC3AFE1F9D39FE1F24
:104460009C39FE1F164B9B78C3F34003DBB2002B35
:1044700014BF01230023DBB283F00103DBB203F09E
:104480000103D9B20E4A137861F3410313700C4A49
:1044900053786FF300035370094B1B88002B05D131
:1044A000074A937843F00103937004E0044A937839
:1044B0006FF30003937000BF03B05DF804FB00BF0F
:1044C000F43AFE1F2D4BD3F82C312C4AD2F8482158
:1044D00002FB03F213469B0013445B001A46284B71
:1044E0005A60264BD3F82C31244AD2F8642102FBBF
:1044F00003F213469B0013445B001A46204B9A605C
:104500001E4BD3F82C311D4AD2F89C2102FB03F23A
:1045100013469B0013445B001A46194B9A61174BD4
:10452000D3F82C31154AD2F8802102FB03F213464E
:104530009B0013445B001A46114B5A610F4BD3F892
:104540002C310E4AD2F8B82102FB03F213469B002D
:1045500013445B001A460B4BDA60084BD3F82C313E
:10456000064AD2F8B82102FB03F213469B0013441B
:104570005B001A46034B1A6100BF70471815FE1FF7
:10458000E43BFE1F003CFE1F034B00221A60034B5E
:1045900000221A7000BF7047F43AFE1FFC3AFE1F5B
:1045A00000BF704708B50D4AD3786FF34103D3704D
:1045B0000A4AD3786FF38203D370084A93786FF373
:1045C000C7139370054AD3786FF30003D37000F0DC
:1045D000E7F800F065F800BF08BD00BFF43AFE1F21
:1045E00086B0034600918DF8073000238DF8163011
:1045F000FF238DF81530274B04939DF80730022BCD
:1046000012D0022B16DC002B02D0012B06D011E0B9
:10461000204B049309238DF80F300FE01E4B0493B9
:1046200011238DF80F3009E01C4B049304238DF8FF
:104630000F3003E000238DF80F3000BF00238DF80A
:1046400017301BE09DF8172013469B0013449B0076
:104650001A46049B13441B68009A9A4204D19DF8A1
:1046600016308DF8153004E09DF8163001338DF8C2
:1046700016309DF8173001338DF817309DF817204C
:104680009DF80F309A42DDD39DF81530184606B0DC
:10469000704700BF80DB030034DC030088DD0300CB
:1046A00082B0394BD3F8F430642202FB03F3019358
:1046B000354BD3F81031642202FB03F30093334BE4
:1046C000DB7803F00803DBB2002B0ED02F4B002267
:1046D0001A802F4B00221A602E4B00221A602E4B9C
:1046E00000229A602C4B00229A652C4B1B7803F019
:1046F0000103DBB2002B14D0254B1B68019A9A42B0
:1047000002D8019B002B06D1244B1B7803F0100329
:10471000DBB2002B05D01D4A137843F04003137021
:1047200004E01A4A13786FF3861313701B4B1B783F
:1047300003F00203DBB2002B1CD0174B9B68009ADE
:104740009A4202D8009B002B0ED1134B9B6D009A0E
:104750009A4202D8009B002B06D1104B1B7803F025
:104760002003DBB2002B05D0084A137843F0800306
:10477000137005E0054A13786FF3C713137000BF79
:1047800000BF02B0704700BF1815FE1FF43AFE1FAD
:10479000643BFE1F683BFE1F3C3AFE1F9C39FE1F18
:1047A00000B5CBB000238DF8253100238DF82431DE
:1047B00000238DF823310023ADF826317AE0574BE2
:1047C0001969BDF826211346DB0013449B000B44F6
:1047D0005B68002B69D1BDF82631514A942101FB59
:1047E00003F313440C331B78002B5ED0BDF8263145
:1047F0004B4A942101FB03F31A4423AB1146942244
:10480000184606F01BFE9DF88C30022B3AD0022B86
:1048100043DC002B02D0012B0ED03EE0684627ABD4
:104820008422194606F00AFE23AB0FCB00F080F875
:1048300001238DF8253133E0684627AB84221946E1
:1048400006F0FCFD23AB0FCB00F03CF9354B1B7899
:104850008DF822319DF822311846FFF79DF8034666
:104860008DF821319DF82131002B03D101238DF8E2
:10487000243114E09DF82131012B10D101238DF852
:1048800023310CE0684627AB8422194606F0D6FD9A
:1048900023AB0FCB00F0D4F902E000BF00E000BF73
:1048A000BDF826311846FDF7F1FABDF8263101337F
:1048B000ADF82631BDF82631182B80D99DF8253169
:1048C00083F00103DBB2002B04D0174B1B680A33C3
:1048D000154A13609DF8243183F00103DBB2002BED
:1048E00005D0124B9B680A33104A936002E00F4BCD
:1048F00000229A609DF8233183F00103DBB2002B84
:1049000005D00A4B9B6D0A33084A936502E0074BBA
:1049100000229A6500BF4BB05DF804FBBCF30300B6
:10492000282BFE1F9E39FE1F643BFE1F3C3AFE1FD4
:1049300084B000B587B00DF1200C8CE80F00002387
:104940008DF81730099B19460020FFF749FE0346F2
:104950008DF81630534B00221A609DF816205249EC
:1049600013469B0013449B000B4410331B680493B5
:104970002C9B0393039A049B9A4240F08C809DF8F1
:104980001630072B02D0082B70D085E00DF12D00DA
:10499000464B0093464B474A4749FCF781FA464B42
:1049A0001B68013B032B5FD801A252F823F000BF24
:1049B000C1490000EB490000154A00003F4A0000D1
:1049C0003E4AD37843F01003D3703C4AD3786FF358
:1049D000C713D370394AD3786FF34513D370374A6E
:1049E000D3786FF38613D3703FE0344AD37843F023
:1049F0002003D370314AD3786FF3C713D3702F4A93
:104A0000D3786FF30413D3702C4AD3786FF38613E3
:104A1000D3702AE0294AD37843F04003D370274A61
:104A2000D3786FF3C713D370244AD3786FF3451349
:104A3000D370224AD3786FF30413D37015E01F4A62
:104A4000D37843F08003D3701C4AD3786FF3861376
:104A5000D3701A4AD3786FF34513D370174AD378BB
:104A60006FF30413D37000E000BF15E0134AD3784E
:104A700043F00803D370114B00221A80104B002220
:104A80001A800F4B00225A800D4B00229A800C4B4B
:104A900000229A7100E000BF00BF07B05DF804EB90
:104AA00004B07047643BFE1F80DB03007E3BFE1FAB
:104AB000783BFE1F743BFE1F6C3BFE1FF43AFE1F4B
:104AC000003BFE1F84B000B585B00DF1180C8CE8DA
:104AD0000F0000238DF80F3000238DF80E30079B58
:104AE00023F0FF0319460120FFF77AFD03468DF8F6
:104AF0000D309DF80D204E4913469B0013449B003A
:104B00000B4410331B6802932A9B0193494B0022EC
:104B10001A60FF238DF80330FF238DF80230019ACD
:104B2000029B9A427DD1444B1B788DF803309DF84F
:104B300003301846FEF730FF03468DF802303F4A37
:104B400053786FF3000353709DF80230FF2B61D050
:104B50009DF80D30083B082B62D801A252F823F0D3
:104B6000854B0000214C0000974B0000A94B000032
:104B7000BB4B0000CD4B0000DF4B0000F14B0000B1
:104B8000034C00009DF802200DF125031146184644
:104B9000FEF75CFA45E09DF802200DF12503114671
:104BA0001846FEF78FFA3CE09DF802200DF1250330
:104BB00011461846FEF7C0FA33E09DF802200DF1C9
:104BC000250311461846FEF75DFB2AE09DF80220FA
:104BD0000DF1250311461846FEF78EFB21E09DF8E6
:104BE00002200DF1250311461846FEF7CFFB18E011
:104BF0009DF802200DF1250311461846FEF710FC22
:104C00000FE09DF802200DF1250311461846FEF72E
:104C1000F5FD06E0094A537843F00103537000E0C4
:104C200000BF00BF05B05DF804EB04B0704700BFE3
:104C300034DC0300683BFE1F9E39FE1FF43AFE1F62
:104C400084B000B5A5B00DF1980C8CE80F00279B3F
:104C500019460220FFF7C4FC03468DF88F30134B32
:104C60001B68072B1CD19DF88F30022B02D0032B21
:104C70000BD015E068462AAB8422194606F0DEFB0D
:104C800026AB0FCB00F014F80AE068462AAB84226A
:104C9000194606F0D3FB26AB0FCB00F09DF800BF02
:104CA00000BF25B05DF804EB04B07047583CFE1F10
:104CB00084B000B58BB00DF1300C8CE80F000023F0
:104CC0008DF82730384B1B78C3F30003DBB283F039
:104CD0000103DBB2002B61D00DF127010DF13D0086
:104CE000324B0793324B0693324B0593324B04936E
:104CF000324B0393324B0293324B0193324B00936E
:104D0000324B334AFCF7C6FD9DF82730013B042B9C
:104D10002AD801A252F823F02D4D0000394D000091
:104D2000454D0000514D00005D4D0000294A1378AB
:104D300043F00103137031E0264A137843F0020375
:104D400013702BE0234A137843F00403137025E01B
:104D5000204A137843F0080313701FE01D4A1378AC
:104D600043F01003137019E01A4A13786FF300032D
:104D70001370184A13786FF341031370154A1378B0
:104D80006FF382031370134A13786FF3C303137026
:104D9000104A13786FF30413137000BF00BF0BB0F9
:104DA0005DF804EB04B07047543CFE1F953BFE1FBA
:104DB000943BFE1F933BFE1F923BFE1F913BFE1F49
:104DC000903BFE1F8F3BFE1F8E3BFE1F8D3BFE1F49
:104DD0008C3BFE1F883BFE1F84B000B583B00DF1F5
:104DE000100C8CE80F0000238DF80730224B1B7845
:104DF000C3F30003DBB283F00103DBB2002B34D03A
:104E00000DF107010DF11D001C4B1D4AFCF7C5FDFE
:104E10009DF80730032B12D0032B16D8012B02D09C
:104E2000022B06D011E0174A137843F001031370E8
:104E30001CE0144A137843F00203137016E0114A81
:104E4000137843F00403137010E00E4A13786FF3E5
:104E5000000313700B4A13786FF341031370094A70
:104E600013786FF38203137000E000BF00BF03B03C
:104E70005DF804EB04B07047783CFE1F843BFE1FD6
:104E8000823BFE1F803BFE1F08B500F0D7FAFCF7FF
:104E9000ADFF00F0E2FAFEF794F800F0FDF800BF75
:104EA00008BD00B585B000238DF80F30724B5B88CC
:104EB000ADF80C30704B5B6802936F4B9B680193AD
:104EC0006E4B1B7803F00103DBB2002B7FD06C4BE1
:104ED0001B68072B01D1FCF7ABFB684A13786FF313
:104EE00000031370674B1B7803F00103DBB2002B48
:104EF00007D0644A13786FF300031370624B0022EB
:104F00001A70604B1B7803F00203DBB2002B10D049
:104F10005C4A13786FF3410313705C4B00225A60B4
:104F20005A4B00221A80574B00229A61554B00229F
:104F30005A61544B1B7803F00403DBB2002B10D0F2
:104F4000504A13786FF382031370504B00225A605B
:104F50004E4B00221A804B4B00229A61494B002293
:104F60005A61484B1B7803F00803DBB2002B22D0B8
:104F7000444A13786FF3C3031370454A13786FF3F1
:104F800000031370424A13786FF341031370404AD1
:104F900013786FF3451313703D4A13786FF3C3030F
:104FA00013703B4A13786FF304131370384A137865
:104FB0006FF382031370334B1B7803F01003DBB2E3
:104FC000002B04D02F4A13786FF3041313702A4B6D
:104FD000DB68002B03D101238DF80F3002E00023A2
:104FE0008DF80F30244B1B7803F00103DBB2002B4C
:104FF0003DD0284B1B7803F00103DBB2002B0DD012
:105000009DF80F20BDF80C3001991846FCF7C8FB3D
:10501000204A13786FF30003137028E01D4B1B78B0
:1050200003F00203DBB2002B0DD09DF80F20BDF87A
:105030000C3002991846FCF7B3FB164A13786FF34D
:105040004103137013E0134B1B7803F00403DBB22E
:10505000002B0CD09DF80F301A4600214FF6FF7040
:10506000FCF79EFB0B4A13786FF38203137000BFAB
:1050700005B05DF804FB00BF783CFE1F543CFE1FEA
:10508000583CFE1F883BFE1F3443FE1F2843FE1F73
:10509000383CFE1F803BFE1F08B500F017F800F0FB
:1050A00093F8FFF70FFA084B1B68052B06D1FBF7A7
:1050B00017FD0221002007F091F903E001210020F3
:1050C00007F08CF900BF08BD583CFE1F00B583B047
:1050D0000021002000F00AF90346002B01D0FBF765
:1050E00035FB0021012000F001F90346002B01D01F
:1050F000FBF792FB0021022000F0F8F80346002B9A
:1051000001D0FBF713FC0021032000F0EFF8034669
:10511000002B01D0FBF76AFC264BDB7F19460420ED
:1051200000F0E4F80346002B01D0FBF7D9FC224B3A
:105130001B7CC3F30003DBB21946052000F0D6F850
:105140000346002B01D0FBF78FFD1C4B1B68012B86
:1051500008D10021062000F0C9F80346002B01D039
:10516000FBF716FE002301931CE0154A019B52F841
:1051700023305A1C1249019B41F82320104A019BFD
:1051800052F823300F49019A51F82220B3FBF2F173
:1051900002FB01F29A1A0A49019B41F82320019B64
:1051A00001330193019B062BDFD900BF00BF03B081
:1051B0005DF804FB303BFE1F003BFE1F583CFE1F0A
:1051C000AC3BFE1FE43BFE1F00B583B00021002076
:1051D00000F0E4F80346002B3CD0414BDB7803F0B1
:1051E0004003DBB2002B0ED04FF6FE724FF6FE717D
:1051F0000020FCF795F84FF6FE724FF6FE71012085
:10520000FCF78EF823E0364BDB7803F02003DBB2AB
:10521000002B0ED04FF6FB724FF6FB710020FCF70F
:105220007FF84FF6FB724FF6FB710120FCF778F820
:105230000DE04FF6FF724FF6FF710020FCF770F89B
:105240004FF6FF724FF6FF710120FCF769F800205E
:10525000FBF78EFE0021022000F0A0F80346002B91
:1052600002D00120FBF784FE0021012000F096F817
:105270000346002B02D00020FBF7BCFF00210320D7
:1052800000F08CF80346002B02D00120FBF7B2FFA0
:10529000002301931CE0134A019B52F823305A1C4F
:1052A0001049019B41F823200E4A019B52F82330FC
:1052B0000D49019A51F82220B3FBF2F102FB01F2F1
:1052C0009A1A0849019B41F82320019B013301935D
:1052D000019B062BDFD900BF00BF03B05DF804FBC4
:1052E000383AFE1FC83BFE1F003CFE1F84B00190F1
:1052F0000B468DF8033000238DF80F302449019AB6
:1053000013469B0013449B000B4408331B68029315
:10531000019B082B36D81E49019A13469B00134463
:105320009B000B4404331B68012B2BD1029B022BE7
:1053300003D8029B002B04D121E0029B053B012BEB
:105340001DD8144A029B52F82330002B12D0124A67
:10535000029B52F823100E48019A13469B001344F7
:105360009B0003440C331B6899420AD101238DF83A
:105370000F3006E09DF803308DF80F3001E000BFDC
:1053800000E000BF9DF80F30184604B0704700BF22
:1053900080DB0300E43BFE1FAC3BFE1F84B00190AA
:1053A0000B468DF8033000238DF80F302049019A09
:1053B00013469B0013449B000B4408331B68029365
:1053C000019B102B2FD81A49019A13469B001344B6
:1053D0009B000B4404331B68012B24D1029B033B2D
:1053E000012B1DD8134A029B52F82330002B12D0F8
:1053F000114A029B52F823100D48019A13469B0054
:1054000013449B0003440C331B6899420AD10123C7
:105410008DF80F3006E09DF803308DF80F3001E075
:1054200000BF00E000BF9DF80F30184604B0704781
:1054300034DC0300003CFE1FC83BFE1F08B500F033
:1054400069F800F0B3F800F0E5F800F01DF900F09D
:1054500061F900F08FF900BF08BD2A4B5B692A4A49
:1054600013602A4B1B78002B07D0294B5B78002B4D
:1054700003D0254B02225A602CE0244B1B79C3F346
:105480000003DBB283F00103DBB2002B09D1204B18
:105490001B79C3F30003DBB283F00103DBB2002B03
:1054A00003D0194B01225A6014E0184B1B7903F00A
:1054B0000103DBB2002B0AD0154B1B7903F001036B
:1054C000DBB2002B03D0104B03225A6002E00E4BDC
:1054D00000225A600D4B9B78C3F38003DBB21A465F
:1054E000094BDA60094B9B78C3F3C003DBB21A4661
:1054F000054B9A60064B1B78DB43DAB2024B1A74F9
:1055000000BF70471815FE1F503BFE1FE040FE1FF6
:105510001C3CFE1F86B000230593002304934FF428
:105520000043ADF80A30BDF80A30059A13440593DC
:10553000BDF80A30049A13440493002303931CE03B
:105540001749039A13469B0013441B010B44103365
:105550001B881A46059B134405931149039A134669
:105560009B0013441B010B4412331B881A46049BF7
:1055700013440493039B01330393039B012BDFD953
:1055800000230193074B5B680193019B9AB2064B82
:10559000DA80049B9AB2044B1A8100BF06B07047B0
:1055A0003C3AFE1FE840FE1F143BFE1F84B0002360
:1055B000039300230293002301931AE01349019AF5
:1055C00013469B0013441B010B4414331B68039ABE
:1055D000134403930D49019A13469B0013441B0186
:1055E0000B4418331B68029A13440293019B013346
:1055F0000193019B012BE1D9054A039BD360044A27
:10560000029B136100BF04B0704700BF3C3AFE1F0D
:10561000143BFE1F84B00023039300230293154B19
:1056200093F823300393134B93F8733002930023C2
:105630000193114B9B6832330193019B0F4AA2FBEC
:105640000323DB080193019BDAB20D4B1A70039B15
:10565000DBB23233DAB20A4B5A70029BDBB232331E
:10566000DAB2074B9A70074B1B68054A536000BFBC
:1056700004B070473C3AFE1FE840FE1FCDCCCCCCB6
:10568000283BFE1F043AFE1F84B00023039300232F
:105690000293002301931CE01B49019A13469B00CF
:1056A00013441B010B440C331B881A46039B134401
:1056B00003931549019A13469B0013441B010B44A5
:1056C0000E331B881A46029B13440293019B01333D
:1056D0000193019B012BDFD9039B5B080393029B82
:1056E0005B080293094B1B689AB2094B1A80074B5F
:1056F000DB689AB2064B5A80039B9AB2044B9A809D
:1057000000BF04B0704700BF3C3AFE1FE840FE1FD8
:10571000143BFE1F144B9A88134B1B689BB2134417
:105720009AB2124B1A80104B9A89104B5A80104B28
:105730009A880F4BB3F8543013439AB20B4B9A80AC
:105740000B4B9A790A4B93F856301343DAB2074B56
:105750009A71054B5B6A054AD360034B1B6A034A87
:10576000936000BF704700BFDC39FE1F003BFE1F87
:105770003C3AFE1F00B583B0002301930023009341
:10578000304B1B68032B10D12F4BD3F8D421134679
:105790009B0013445B0000932B4BD3F84C2713461C
:1057A0009B0013445B00019311E0264B1B68042B04
:1057B0000DD1264B9A6A254B9B6F13440093234BC4
:1057C0009B8F1A46214BB3F88C3013440193019BF5
:1057D0009AB21F4B9A801E4A009B13601D4B1A7889
:1057E0001B4B1A771C4B1B78C3F30003DBB21A4622
:1057F000174B1A61184B1B78C3F34003DBB21A46F0
:10580000134B5A61154B1B78C3F30003DAB2104BEC
:105810009A77134B1B78C3F34003DAB20C4B5A77D9
:10582000084B1B680A4A936000F01EF80346084ABA
:10583000D3600C4B1B68064A936100BF03B05DF850
:1058400004FB00BF583CFE1F1815FE1F3C3AFE1F0C
:10585000303BFE1F0D41FE1F0C41FE1F283CFE1F6A
:10586000243CFE1FDC3AFE1F84B000230293002379
:10587000019300230393194BDB6A0293174BDB6FF1
:105880000193029B012B02D0019B012B01D101232B
:105890000393029B042B02D0019B042B01D1022312
:1058A0000393029B012B04D1019B042B01D1032301
:1058B0000393029B042B04D1019B012B01D10323F1
:1058C0000393029B002B04D1019B002B01D10023E9
:1058D0000393039B184604B0704700BF3C3AFE1F79
:1058E00008B500F0C7FB00F0D9FA00F0B5FE0F4A8A
:1058F00013786FF3410313700C4A13786FF30003AE
:1059000013700A4B00225A70094B00229A70084B00
:1059100000225A70064B0022DA70054B00221A70E2
:10592000034B00221A7100BF08BD00BF243CFE1FBC
:105930001C3CFE1F08B5154B1B68012B04D0072B20
:1059400005D100F0DFF803E000F002F900E000BF4D
:1059500000F0AAF900F0F4F90D4B1B78032B06D8E0
:105960000B4B1B780133DAB2094B1A7002E0084B7B
:1059700000221A70074BDB7803F00803DBB2002B20
:1059800002D0054B0022DA7000BF08BD583CFE1F54
:10599000293CFE1FF43AFE1F1C3CFE1F08B58C205C
:1059A00012F058FC0346002B14BF01230023DBB286
:1059B000184608BD08B5892012F04CFC0346002BA0
:1059C00014BF01230023DBB2184608BD00B583B025
:1059D000012000F087FD0D4B1B788DF80730022069
:1059E00000F080FD094B1B788DF806309DF90720EB
:1059F0009DF806305B005BB213435BB28DF8053057
:105A00009DF80530184603B05DF804FB393CFE1FD5
:105A100008B500F0CDFD00F0DFFA00F057FF00BF41
:105A200008BD82B0334B1B7A8DF80630314B5B7A60
:105A30008DF805309DF80530013B052B38D801A2C3
:105A400052F823F05D5A00006B5A0000875A00009C
:105A5000795A0000955A0000A35A0000264B1B7883
:105A6000C3F300038DF8073023E0234B1B78C3F307
:105A700040038DF807301CE01F4B1B78C3F38003F5
:105A80008DF8073015E01C4B1B78C3F3C0038DF86D
:105A900007300EE0184B1B78C3F300138DF8073066
:105AA00007E0154B1B78C3F340138DF8073000E077
:105AB00000BF9DF80630062B06D0062B15DC032B05
:105AC0000DD0042B05D010E09DF80720094B1A7467
:105AD0000CE00A4B1B781A46064BDA7306E0084BBB
:105AE0001B781A46034BDA7300E000BF00BF02B018
:105AF000704700BF883BFE1F383CFE1F393CFE1F2D
:105B0000363CFE1F08B5114B1B7803F00103DBB2D6
:105B1000002B0AD000F052FB00F030FAFFF781FFB3
:105B20000A4A13786FF300031370084B1B7803F0D5
:105B30000203DBB2002B06D000F090FD034A13787D
:105B40006FF34103137000BF08BD00BF543CFE1F3C
:105B500000B583B04A4B1B78002B29D0494B1B78EA
:105B6000312B1ED9484A137943F001031371474B77
:105B700000221A70FFF72AFF03461A46444B5A7058
:105B8000434B5A78434B1A70414B5A78424B1A7028
:105B9000072000F0A6F9414A137843F0010313707F
:105BA0006AE0384B1B780133DAB2364B1A7063E087
:105BB000364B1B78002B4DD0394B1B78002B5BD01C
:105BC0000123019305E0019800F036FC019B0133AD
:105BD0000193019B072BF6D9324B1B7803F001038D
:105BE000DBB2002B26D02F4B1B7803F00203DBB275
:105BF000002B1FD02B4B1B7803F00803DBB2002BCC
:105C000018D0284B1B7803F01003DBB2002B11D007
:105C1000244B1B7803F00403DBB2002B0AD0214B8A
:105C20001B7803F02003DBB2002B03D0164B0122BC
:105C30005A7007E0144AD37843F00203D370124B32
:105C400000225A700E4B01221A700F4A154B1B7816
:105C5000137011E00123009305E0009800F086FB2B
:105C6000009B01330093009B072BF6D9044B0022C5
:105C70001A70044B00221A7000BF03B05DF804FBD9
:105C80002B3CFE1F2A3CFE1F1C3CFE1F3A3CFE1F05
:105C9000243CFE1FFC3AFE1F9D39FE1F283CFE1FC0
:105CA0003B3CFE1F383CFE1F00B583B01E4B1B78EB
:105CB000002B34D01C4B1B78012B15D11B4B1B78B0
:105CC0008DF807301A4B5B789DF807209A4205D073
:105CD000184AD37843F00103D37020E0154AD378F3
:105CE0006FF30003D3701AE00F4B1B78022B16D111
:105CF000072000F022F9104B1B78C3F30003DAB23F
:105D00000E4B1B789A4205D00A4AD37843F002031F
:105D1000D37004E0074AD3786FF34103D37000BF18
:105D200003B05DF804FB00BF293CFE1FFC3AFE1FD8
:105D3000243CFE1F1C3CFE1F283CFE1F363CFE1F61
:105D400008B54E4B1B78002B46D1FFF733FE0346B8
:105D50001A464B4B1A70FFF721FE03461A46484B72
:105D60005A70474B5A78474B1B78C3F34003DBB25A
:105D70009A420ED0444B5B68092B0AD9404B5978A4
:105D8000404A137861F3410313703F4B00225A607D
:105D900004E03D4B5B6801333B4A5360384B1A7853
:105DA000384B1B78C3F30003DBB29A420ED0364B5C
:105DB0001B68092B0AD9324B1978324A137861F3E0
:105DC00000031370304B00221A6054E02E4B1B6806
:105DD00001332D4A13604EE0284B1B78012B06D16E
:105DE000FFF7F4FD03461A46264B5A7043E0234B57
:105DF0001B78022B37D1254B1B68072B0CD1244B6A
:105E00001B7A002B14BF01230023D9B2214A137837
:105E100061F3000313702EE01F4B9B88002B03D10E
:105E20001A4B1B68012B08D1072000F070F8194AA3
:105E300013786FF3000313701DE0144B1B68052BE0
:105E400008D1072000F04DF8124A137843F00103FF
:105E5000137010E0072000F044F80E4A137843F066
:105E60000103137007E0054B1B78032B03D0034B92
