:0200000280007C
:1000000000F0012021040800D90408003D3D08004B
:100010003F3D0800413D0800433D0800000000004E
:10002000000000000000000000000000453D080046
:10003000473D080000000000493D08004B3D080016
:100040004D3D08004D3D08004D3D08004D3D080068
:100050004D3D08004D3D08004D3D08004D3D080058
:100060004D3D08004D3D08004D3D08004D3D080048
:100070004D3D08004D3D08004D3D08004D3D080038
:10040000FFFFFFFFFFFFFFFFFFFFFFFFFE7FFFFF7D
:040410000200000BDB
:1004200072B64FF000004FF000014FF000024FF0A5
:1004300000034FF000044FF000054FF000064FF0AE
:1004400000071B484FF4401101601A481A49016027
:100450001A4880F30888FFE7194842F220510160EA
:1004600018484FF6FF710160FFE71748002809D0D0
:100470001649174A521A013A04DD0020002309C127
:10048000083AFCDA134800684FF05A318842F9D034
:10049000FFE703F08BFC00F021F862B603F0B0FC3C
:1004A00000F060F800BFFEE7AFF30080AFF300801C
:1004B0000480044008ED00E00010FE1F00F0012061
:1004C0000020054008200540010000000000FE1F3C
:1004D00000F001208C41FE1FFEE700004FF0E023FA
:1004E000D3F8882D42F47002C3F8882DBFF34F8FE4
:1004F000BFF36F8FD3F8142D42F00102C3F8142D0F
:10050000D3F8202D22F47F02C3F8202D4FF0804332
:100510004FF077321A6000221A625A62DA621A6465
:100520005A649A64DA641A655A659A65DA651A66D5
:100530005A669A66DA66BFF34F8FBFF36F8F084B28
:100540004FF0A0621A601A6842F000421A601A68FE
:10055000002AFCDB1A6842F001021A60704700BFF3
:10056000002008E008B500F00BF800F079F800F082
:1005700079F800F078F804F029F804F071F8FCE755
:100580002E4808B512F08CFF002012F0D1FF13F0B6
:1005900041F83328FBD113F01FF8002012F0F2FFCE
:1005A000274804F052FA274813F0D0FA002013F03D
:1005B00055FA254811F094F924481CF041F801201F
:1005C0001CF01EFB224804F013FC224811F0A8FB8B
:1005D000214814F0CBF9214804F0DAF90121572021
:1005E0000AF064FB4FF480424EF65131002014F0C3
:1005F00057FA4FF480424EF65131012014F050FA70
:100600004FF480424EF65131022014F049FA4FF473
:1006100080424EF65131032014F042FA4FF48042EA
:100620004EF65131042014F03BFABDE808404FF477
:1006300080424EF65131052014F032BAA0000A0073
:10064000E0EB0900F40E0A004CFE090048190A000C
:10065000FCEB090088FE0900C4170A0058F60900DF
:1006600000F073BC704708B500F0C2FD02F062FDF7
:1006700002F0FEFB02F026FD01F076FA00F0AEFF7C
:1006800001F070FF02F07EFF02F0B6FB02F0FCFB0F
:10069000012157200AF00AFB01218E200AF006FBF7
:1006A00001218F200AF002FB012197200AF0FEFAB7
:1006B000012198200AF0FAFA012199200AF0F6FAAD
:1006C00001219A200AF0F2FA01217A200AF0EEFACA
:1006D000BDE8084001217C200AF0E8BA704700F02C
:1006E00085BB704708B502F0CDFB02F003FD00F0BA
:1006F00075FF00F0ADFF03F0A1FFBDE8084000F07A
:100700008BBD00BF30B50E4B1D680E4B97B0DA881D
:100710001B89ADF81A300C4BADF81820187803ACD3
:1007200000F0030006AB284400940422002100F0EE
:10073000F3FA94E807000F2300F0AAFB17B030BDCE
:100740006CDB0900203AFE1F1C38FE1F30B50D4B34
:100750005D690D4B97B0DA681B6907930B4B0692E6
:10076000187803AC00F0030006AB2844009408227C
:10077000002100F0D1FA94E80700122300F088FB72
:1007800017B030BD6CDB0900203AFE1F1C38FE1F7D
:1007900030B5124B9D6A124B5A6897B002F00302B3
:1007A0008DF818205A788DF819209A781B788DF8D2
:1007B0001B300C4B8DF81A20187803AC00F00300A6
:1007C00006AB284400940422002100F0A5FA94E826
:1007D0000700132300F05CFB17B030BD6CDB090091
:1007E000343AFE1F1C38FE1F30B50E4BDD6B0E4B2E
:1007F00097B01A689B88ADF81C300C4B069218789D
:1008000003AC00F0030006AB28440094062200214C
:1008100000F082FA94E80700142300F039FB17B0C7
:1008200030BD00BF6CDB0900203AFE1F1C38FE1FE4
:1008300030B5204B1C6D204B97B01A680692DA68D1
:1008400099888DF81C101201C1F3032102F03002C7
:100850000A4319695869890101F0400101EBC0118F
:100860000A448DF81D209A699968120101F00F0160
:1008700002F030020A43197F02EB81128DF81E202C
:100880009A7F5B7F03EB42038DF81F300B4B187888
:1008900003AD00F0030006AB2044009508220021C0
:1008A00000F03AFA95E807000E2300F0F1FA17B0CD
:1008B00030BD00BF6CDB09003C3AFE1F1C38FE1F38
:1008C00030B5144A144B97B05D6E13680693938845
:1008D000ADF81C3093798DF81E30D36892689B0078
:1008E00002F0030203F00C0313438DF81F300B4B8F
:1008F000187803AC00F0030006AB284400940822EB
:10090000002100F009FA94E80700102300F0C0FA73
:1009100017B030BD7C3AFE1F6CDB09001C38FE1F8F
:1009200030B5144A144B51689D6F136897B001F0AD
:100930000301069393681B0103F030030B43D16856
:1009400003EB81138DF81C30137C8DF81D300B4B9D
:10095000187803AC00F0030006AB2844009406228C
:10096000002100F0D9F994E80700112300F090FA73
:1009700017B030BD5C3AFE1F6CDB09001C38FE1F4F
:10098000037803F007030B707047704770B596B09B
:10099000002844D1294B1D6829492A4B0E682A4C4E
:1009A000542202FB0032032ED26C19463DD1274B54
:1009B000D3F8283254F82060964238BFF2185423F6
:1009C00044F8202003FB001003AC90F852308DF85F
:1009D000183002EB82035B008DF819300A23534371
:1009E0001A0A8DF81A201A0C1B0E8DF81C30B0F85C
:1009F00050308DF81D301B0A8DF81B208DF81E30ED
:100A000005F1004006AB00940722002100F084F9B4
:100A100094E807000C2300F03BFA16B070BD0128E3
:100A20000ABF064B00259D6AB6E7042E0BBF074B95
:100A30000023D3F8603244F82030BBE740DA0900E5
:100A4000CC3AFE1FAC38FE1F302AFE1F4014FE1F9A
:100A500030B597B0D8B9114B5D69114B542202FBE8
:100A6000003003AC436C8DF81830836C8DF819306E
:100A700005F1004006AB00940222002100F04CF981
:100A800094E807000D2300F003FA17B030BD0128E9
:100A90000ABF024B0025DD6BDFE700BF40DA09002B
:100AA000AC38FE1F10B596B088B90C4B186D03AC6E
:100AB000002206AB0094114600F1004000F02CF932
:100AC00094E80700152300F0E3F916B010BD0128E3
:100AD0000ABF024B0020586EE9E700BF40DA090068
:100AE000037810B5447843EA04230B80C1788378F7
:100AF00043EA0123138010BD43680B600368136051
:100B0000704710B504780C704178117082781A70B3
:100B1000029BC2781A70039B02791A70049B427977
:100B20001A70059B82791A70069BC2791A7010BDE3
:100B3000FFF7D6BF10B504780C70D0F80110116023
:100B400042791A7010BD10B504780C70417811709C
:100B5000C178827842EA01221A8010BD03680B60D6
:100B600043681360704703680B60704710B5184BFB
:100B70001868184B5A7996B000F1004032BB5A6998
:100B80000692DA7B597A02F0030202EB0112197C19
:100B9000890001F00C010A448DF81C20DA799B7B56
:100BA000920002F00C0203F00303134303AC8DF830
:100BB0001D30009406AB0622002100F0ADF894E849
:100BC0000700162300F064F916B010BD9A69D7E744
:100BD000F0D90900043AFE1F30B50C4B97B05D699F
:100BE000069103ACADF81C008DF81E2006AB05F194
:100BF000004000940722002100F08EF894E80700DE
:100C0000172300F045F917B030BD00BFF0D9090037
:100C100030B5047804F00F050D70C4F30211E40937
:100C200011701C704378039A03F00F011170049A3D
:100C3000C3F3011313708378059A03F00F01117049
:100C4000069A1B0913700A9BC2781A700379079AD7
:100C500003F003011170089AC3F381011170099A1E
:100C6000C3F30013137030BD10B504681C604479E1
:100C7000037943EA04231380837903F003030B70A1
:100C800010BD00BF28B90A4A137843F0100313704F
:100C90007047012804D1064A137843F02003F6E791
:100CA0000228F5D1024A137843F04003EFE700BF72
:100CB000382AFE1F70477047F0B58388154A942480
:100CC00004FB03242679DEB9046892F8E45D04F09D
:100CD0000304AC4217D1942404FB0323D1F804C0CD
:100CE000C3F894C001241C740025ACB2A44505F1DE
:100CF000010509D8012E04BF0378A2F8E63D02E001
:100D0000741E012CE7D9F0BD0F683F5D1C44677469
:100D1000EBE700BF382AFE1F10B5029CA2712060CD
:100D2000A180A36010BD2DE9F3410023071E2D4CC7
:100D30000E46184614BF012102211546237004F007
:100D40001BF928B9237867F3000367F3C303237003
:100D5000002E14BF01210221012004F00DF928B951
:100D6000237866F3410366F3C3032370002D14BF99
:100D700001210221022004F0FFF828B9237865F34D
:100D8000820365F3C3032370174B00225B69019351
:100D90004FF094081546019B53F822005FFA82FE3B
:100DA00090F838C0002110E0C36B53F821603388FD
:100DB00008FB0343013183F804E077693F689F60D3
:100DC0007768DF601D74C3F894508BB29C45EBD8F4
:100DD0000132032ADFD1002384F8E43D02B0BDE8EC
:100DE000F08100BF382AFE1FFCEB090008B5022184
:100DF000002004F0C1F870B90221012004F0BCF811
:100E000048B90221084604F0B7F820B9024B1A7815
:100E100060F3C3021A7008BD382AFE1F1FB50020F8
:100E200001A9CDE90100039004F056F902A90120BF
:100E300004F052F903A9022004F04EF9029B0E4976
:100E4000023B5A425A41019B981E434243411B01B7
:100E500043EA4213039AA2F1020CDCF1000242EBD6
:100E60000C0243EA82130A7822F0700213430B70DB
:100E700005B05DF804FB00BF382AFE1F034B942227
:100E800002FB003000230374704700BF382AFE1FA6
:100E90001FB501AC84E807002146184604F0A6F906
:100EA00004B010BD70471E4B5B6970B504460E461A
:100EB0001546EBB153F82030DB8D8B4298BF0026EE
:100EC000022104F059F898B93146204604F02AF876
:100ED0002946204604F050F8012C0DD0022C15D0E4
:100EE00034B9104B1A7820B91DB142F001021A70C2
:100EF00070BD6FF30002FAE70A4B1A7818B915B102
:100F000042F00202F3E76FF34102F0E7054B1A7873
:100F100018B915B142F00402E9E76FF38202E6E77F
:100F2000FCEB0900382AFE1F082888BF0020704704
:100F300008B50EF0FFF80EF045F80128F9D10EF0D3
:100F40004FF8003818BF012008BD1148C26A38B5F3
:100F5000104C036B0021032A217017D1B3B10E4D41
:100F60002A6A22F040622A621A68A2600132E260B4
:100F70005A6822619B68616001326261A3610DF071
:100F800089FE0EF01FF8012808BF207038BD00BF91
:100F900084F809002038FE1F002008E0014B0022E1
:100FA0001A7070472038FE1F022809D8054B03EB42
:100FB000C0008368426801339B1A0B6000207047B1
:100FC000012070472038FE1F094A08B513786BB11D
:100FD00002280BD802EBC003D3E901010131091A41
:100FE0000DF0FAFE10B9BDE80840A1E7012008BDE8
:100FF0002038FE1F38B50C4D0C4611462A7882B1B8
:1010000002280ED805EBC00568682044AC681A18A1
:10101000944206D31A460DF055FF10B9BDE838408A
:1010200086E7012038BD00BF2038FE1F38B50C4DC3
:101030000C4611462A7882B102280ED805EBC0056D
:1010400068682044AC681A18944206D31A460DF01A
:10105000D9FF10B9BDE838406AE7012038BD00BFAC
:101060002038FE1F08B507481BF0EAFA064B00229D
:101070001A709A705A70DA70C3E90122C3E9032228
:1010800008BD00BF48190A003C38FE1F08B5054AD4
:101090000223D11801201BF039FCBDE808400020D4
:1010A0001BF090BB3C38FE1F08B5054A0223D1183F
:1010B00000201BF02BFCBDE8084003201BF082BB86
:1010C0003C38FE1F08B5054A0223D11800201BF04A
:1010D0001DFCBDE8084001201BF074BB3C38FE1F1E
:1010E00008B5054A0223D11800201BF00FFCBDE80B
:1010F000084002201BF066BB3C38FE1F7047034BC4
:1011000019785A7842EA01221A6170473C38FE1F6A
:10111000034B19785A7842EA01225A60704700BF9F
:101120003C38FE1F034B19785A7842EA01229A6034
:10113000704700BF3C38FE1F034B19785A7842EACB
:101140000122DA60704700BF3C38FE1F38B50A4DF7
:10115000044650B100210E2009F0A8FD0021022014
:1011600009F0A4FD01232B7038BD04481CF09AF847
:1011700001236C70AB70F7E75038FE1F301B0A007C
:1011800038B5094D044650B100210E2009F08EFDFE
:101190000021022009F08AFD00232B7038BD1CF0CD
:1011A00085F86C70AC70F9E75038FE1F19B1014634
:1011B0000E2009F07BBD01201CF078B838B504463C
:1011C00048B10121022009F071FDBDE8384000213D
:1011D000022009F06BBD054D6B78042B03D91CF080
:1011E00069F86C7038BD01336B70FBE75038FE1F37
:1011F000084B4FF6FF71002219834FF0FF31C3E90E
:1012000009221A701A815A601A825961198483F866
:101210002C2070475438FE1F084B4FF6FF710022F8
:1012200019834FF0FF31C3E909221A701A815A60FD
:101230001A82596183F82C20704700BF5438FE1F72
:10124000184B0228D3F8E0150ED003280FD0D3F89E
:101250009832154A92689A42144B0BD200221A60B7
:101260001B688B4209D27047D3F8B432F1E7D3F848
:10127000D032EEE71A688A4209D302280C4B08D014
:1012800003280AD01A7B42F002021A737047013217
:10129000E5E71A7B42F00402F7E71A7942F0080208
:1012A0001A71E0E74014FE1F583FFE1F8438FE1FEE
:1012B0005838FE1F2DE9F843B94BBA4CDA78BA4FCB
:1012C00012F0080F98461FBF0023A3802360A3815C
:1012D000B64B1B68012B02D9052B40F0138100236C
:1012E000A3822361B24EA383B27996F85A30B14DEE
:1012F000002A18BF43F00103003B227B18BF0123E3
:1013000063F3000201202273FFF79AFF0220FFF728
:1013100097FFA94998F801300A78C3F30000C2F397
:101320000003DB0043EA8013C2F3400243EAC21326
:10133000227B02F037021343A04A2373937813F001
:101340000200914600F0E7806A6A632A00F2E580B5
:101350000132642A6A6200F0E08013F00103D7F8DA
:10136000A82500F0E0802B6A9A4200F2DB806379C6
:1013700043F0100363710B78C3F38002C3F3C0031F
:101380001B0143EA4213627B22F030021343637372
:10139000A389A28B13402278A38198F80030C2F36E
:1013A000400141EAD311C3F3801343EA410322F021
:1013B000030213432370B388032B00F2BA80003B6F
:1013C00018BF01230022B6F85810032903D80029BA
:1013D00018BF01231AB1227942F004022271627B04
:1013E00063F300026273764AD37813F001039046E8
:1013F00000F0A2806B68632B00F2A0800133642BA5
:101400006B6000F09B800320FFF71AFF99F8023011
:1014100013F0040200F09780AA68632A00F2958016
:101420000132642AAA6000F0908013F0080200F0F4
:101430009180EA68632A00F28F800132642AEA60B0
:1014400000F08A8013F0100100F08B806A69632A33
:101450009CBF01326A61627B42F0040262736A6976
:10146000632A00F2848013F0200100F08580AA69CD
:10147000632A9CBF0132AA61627B42F00802627358
:10148000AA69632A7ED813F04003D7F8C4257FD019
:10149000EB699A427BD8637943F00803637198F84B
:1014A000033013F0020378D02B69632B00F28A809B
:1014B0000133642B2B6100F0858021682369A088AB
:1014C000A28B75681940A38A21601840A389A08067
:1014D0001340B26DA38132F07F4214BF022200227A
:1014E00035F07F4594F8245018BF42F0010225F0F2
:1014F00003052A4384F82420002868D003232362AC
:10150000BDE8F883D7F85C23D7F87813D7F84033D1
:10151000A1822261E6E668621FE7627B42F0020276
:1015200062731AE701332B622B6A9A423FF623AFAC
:101530001DE70023012246E76B6064E7237943F04F
:10154000200323715FE7AA606FE7227942F040022F
:1015500022716AE7EA6075E7227942F0800222711F
:1015600070E76961627B61F3820262737BE7627993
:1015700042F00202627176E7A961627B61F3C30205
:10158000627380E7627942F0040262717BE70133A3
:10159000EB61EB699A4282D87DE72B618DE700BF52
:1015A000E039FE1F5838FE1F4014FE1FCC3AFE1FC4
:1015B000AC38FE1F8438FE1FD03AFE1F503FFE1F7E
:1015C000923AFE1F637943F00103637175E709B135
:1015D000022394E7002B92D0012390E700211B4BBC
:1015E00010B50A46FF24481C0228C3E90622C3E9B5
:1015F0000A42C3E90E22C3E911221870DA605A6068
:101600001A825A829A82DA8283F8202083F8212073
:1016100083F8222083F8232083F8242083F82520D0
:1016200083F8262083F827201A6383F83420A3F850
:10163000402083F84220DA64A3F8502083F8522037
:101640004FF0010103F15403CDD110BDAC38FE1FA2
:10165000FFF7C4BF38B5184D184CEB7813F0080FDE
:1016600004D1A288B4F85830134314D0D4F8A80099
:1016700090B1012816D0D4F8AC30B3F57A7F29BFE9
:1016800000230133A380A4F8583024BFA37184F849
:101690005A30C4F8AC3038BDFFF704FA0123C4F85F
:1016A000A830E8E7FFF7FEF9EB78002262F3C30306
:1016B000C4F8A820EB70DEE7E039FE1FAC38FE1F4F
:1016C00030B4084B542404FB0132002511FB04F113
:1016D000556101F11602143130BC1A441944FFF768
:1016E000FFB900BFAC38FE1F30B4084B542202FBD8
:1016F000013411FB02F1002501F11C021831C4E98B
:1017000006551A4430BC1944FFF7F6B9AC38FE1F31
:1017100070B55422154D02FB01F32033EE1811FB76
:1017200002F1002486B0EC50746001F127042C44CF
:10173000049401F126042C44039401F125042C4463
:10174000029401F124042C44019401F1230401F1D9
:10175000220301F1210201F120062C4400942B44C4
:101760002A44A919FFF7CDF906B070BDAC38FE1FA9
:1017700030B4084B542202FB013411FB02F1002566
:1017800001F11202103125611A4430BC1944FFF7EF
:10179000CFB900BFAC38FE1F37B50D4A542505FB45
:1017A0000124002322468DF806308DF80730E362CD
:1017B0002C320DF107030DF10601FFF7BBF99DF87F
:1017C0000630A3629DF80730236303B030BD00BF2D
:1017D000AC38FE1F37B50D4B542505FB01340022F4
:1017E00023468DF806208DF80720A4F840204033CA
:1017F0000DF107020DF10601FFF7A5F99DF806307E
:10180000A3639DF80730E36303B030BDAC38FE1F1F
:10181000F7B50D46002401AA6946CDE90044FFF75B
:101820009DF952499DF80160542303FB05119DF871
:1018300004309DF80050C3F3800003F0010242EA37
:101840004002C3F3400042EA800203F00800024372
:10185000C3F3401040EA131000F0010042EA001206
:10186000C3F3801040EAD31342EA43129DF80530D7
:1018700043EA530000F0010042EA8012C3F3C000C3
:1018800040EA930000F0010042EAC012C3F34010A6
:1018900040EA131000F0010042EA0022C3F3801076
:1018A00040EAD3139DF80600034303F0010342EA24
:1018B0004322C0F3400342EA832205F0010342EAD7
:1018C000C322C5F3400342EA0332C5F3C00343EA2F
:1018D000950303F0010342EA4332C5F3401343EAA0
:1018E000151303F0010342EA8332C6F34007C6F33F
:1018F00000033B43C6F380073B43C6F3C0073B43AB
:10190000C6F300173B43C6F340173B43C6F38017AB
:101910003B4343EAD61343EAD513C5F380152B4363
:10192000C0F3C0052B43C0F300152B43C0F3401593
:101930002B439DF80750C5F300052B4343EAD01312
:10194000C0F380152B43C0F3800003439DF80200D1
:10195000034303F0010342EAC3338B80044B1B684B
:10196000022B08BF8C8003B0F0BD00BFAC38FE1F57
:10197000CC3AFE1F73B50D46002401A90194FFF770
:10198000F2F89DF804001B49542303FB0511C0F332
:101990004002C0F3000343EA4203C0F3800243EA7B
:1019A0008203C0F3C00243EAC203C0F300129DF8F1
:1019B000055043EA0213C0F3401243EA4213C0F356
:1019C0008012C5F3C00643EA8213C5F38002324396
:1019D00042EAD012C5F300000243C5F340052A4392
:1019E00043EAC2138B71044B1B68022B08BF8C7136
:1019F00002B070BDAC38FE1FCC3AFE1F024B1B7804
:101A0000181A18BF01207047AC38FE1F074B38B1B9
:101A1000DA68012802F10A02DA6002D1002202E04B
:101A2000D8601A6E0A321A66704700BFAC38FE1FC3
:101A3000364B1A68364B032A10B520D19888B3F874
:101A40005810014357D1334AD2F84C17D2F8D40179
:101A5000D8640A224A430221C3E91111C3E92611BD
:101A60000124C2F34F0283F85240A3F8502083F8B8
:101A7000A640C3F8A000A3F8A420002238E0042A5E
:101A800039D125490979890735D59888B3F858108F
:101A9000014330D11F4AD2F87C42D2F844020A22D4
:101AA0000121504362430724C3E9261492B283F80C
:101AB0005210D864A3F8502059649C6483F8A6108F
:101AC000C3F8A000A3F8A420B3F86A001149DA8A89
:101AD0000244D1F87C0292B2904214D85A8AB3F8E8
:101AE0006600D1F844120244B1EB520F0BD9012227
:101AF000C3F8B02010BD0021042A83F8521083F8E7
:101B0000A610BAD1E0E70222F2E700BFCC3AFE1FEE
:101B1000AC38FE1F4014FE1F503FFE1F1049114AF3
:101B2000D1F82C01D1F8483110B503FB00F40A2399
:101B30005C435460D1F8644144435C439460D1F801
:101B40009C4144435C439461D1F88041D1F8B81181
:101B5000444348435C434343C2E90A33546110BDE4
:101B60004014FE1F6839FE1F012270B54D4C4FF026
:101B7000FF3311461046C4E90E33FFF7D4F80023B3
:101B800004F1400104F15C021D460133072B41F8CA
:101B9000045B42F8045BF8D1FFF7C0FFD4F894303F
:101BA000A56723F007031B041B0CC4E9253594F833
:101BB0009C30A4F8845023F01F0384F89C303A4BE7
:101BC000A4F890501B68C4F8A850C4E93735374BC7
:101BD00084F8AC50C4E92255C4E92855C4E92C5511
:101BE000C4E92E55C4E93155C4E93455C4E9395521
:101BF000A4F8C050A4F8CC5084F8CE50A4F8D85023
:101C0000C4E93B551B7D84F80451C4E93D35C4E962
:101C10003F5584F80851264D0121572009F046F818
:101C2000297801220020FFF73EF901222978104689
:101C3000FFF739F9297801220220FFF734F91D4B0B
:101C40001A78C2F3C00102F00106C2F34005C2F3E4
:101C5000800081F0010286F00103520042EA830213
:101C600085F0010342EAC30280F0010342EA031354
:101C700043EA4143A26F43EA864343EAC54322F065
:101C80001E1222F4807243EA005313439AB2B2FA4E
:101C900082F2A3675209C3F3074362F3000384F897
:101CA0007A3070BD6839FE1FCC3AFE1F4014FE1F0B
:101CB0001C38FE1F382AFE1F024B00229A6783F849
:101CC000082170476839FE1F704700BF0B4BF0B505
:101CD00053F8206018440023057B1A46FF20142780
:101CE000DCB2A54200D8F0BD07FB03F40133345940
:101CF0008C421ABF0132D2B21046F1E720DC090053
:101D00002DE9F04FAF4CB04F638823F4F06363804C
:101D1000AE4BFBB000251B690895AA460993099AAA
:101D2000242303FB05231FFA85FB5E6896BB97F807
:101D30000C80B8F1000F2DD0942239460BA802F088
:101D4000FDFD97F80090B9F1010F00F0AB80B9F1FB
:101D5000020F00F00681B9F1000F18D194220BA9EF
:101D600055A802F0EBFD56994846FFF7AFFF984A99
:101D70009849C2F80090142202FB00121169799A66
:101D8000914203D1072858D008287DD0C246584632
:101D9000FFF774F80135182D07F19407BFD1BAF198
:101DA000000F03D18A4A13680A331360089B33B9C2
:101DB000894BDA680A32DA601A6E0A321A66874B81
:101DC000D3F8F420D3F81051E3781B0708D58049E5
:101DD000814800230B60824923800B60C360036647
:101DE000804B1B7813F001010AD064215143784ADB
:101DF0001268914202D8002940F05F81C3F30011BC
:101E0000207813F0020261F38610207000F05781F1
:101E100071496422C8686A43824202D9096E8A42C3
:101E200002D8002A40F04D81C3F34013227863F3B7
:101E3000C71222707BB0BDE8F08F6B4E0DF26110BF
:101E40003146FEF79DFD3368013B032B9ED8DFE84A
:101E500003F002090F15E37803F00F0343F01003BA
:101E6000E37093E7E37803F00F0343F02003F7E711
:101E7000E37803F00F0343F04003F1E7E37803F066
:101E80000F0363F07F03EBE72168584A0A4042F0F2
:101E900000622260564AC2F80090A2F8049082F8CC
:101EA000069073E794220BA955A802F047FD5699B6
:101EB000484621F0FF01FFF709FF4E4A142303FBB8
:101EC000002381461A69464B1E60434BDE601E6646
:101ED000799B9A421AD1484B1878FFF78FFD6378A7
:101EE000FF2866F300030146637035D0A9F10609A7
:101EF000B9F1080F0AD8DFE809F005090C11161B23
:101F000020252A000DF26110FFF7DAFBCDF82080C2
:101F10003DE70DF26110FFF7E7FBF7E70DF2611007
:101F2000FFF7F6FBF2E70DF26110FFF721FCEDE79A
:101F30000DF26110FFF730FCE8E70DF26110FFF7DA
:101F400049FCE3E70DF26110FFF762FCDEE70DF2FA
:101F50006110FFF70FFDD9E7637843F00103637069
:101F6000D4E794220BA930A802F0E8FC0C9948466B
:101F7000FFF7ACFE022847D003287FF408AF942275
:101F800030A955A802F0DAFC1C4B8DF82B601B78A9
:101F9000DA073FF5FCAE1A4B0DF12B019A1E0DF23C
:101FA0006110FEF761FE9DF82B20164B022A79D0B6
:101FB000032A7BD0012A1A787CD142F001021A70E0
:101FC000E5E600BFE039FE1F3C2AFE1FFCEB0900DE
:101FD000783AFE1F6CDB0900AC38FE1F4014FE1F70
:101FE000743AFE1F382AFE1FE839FE1F0000FFF773
:101FF0007C3AFE1F40DA09001E38FE1FE03AFE1F41
:10200000003AFE1FFC39FE1F30A9942255A802F0A9
:1020100095FC2D4B8DF82B601B78D9073FF5B7AE9B
:102020002A4B0793013B5E1E0693731E0493B31E57
:102030000393F31E0293331F0193731F00930596BE
:10204000B31FF21F0DF12B010DF26110FEF7E0FD41
:102050009DF82B30013B042B1FD8DFE803F0030A67
:102060000F14190016F80B3C43F0010306F80B3C63
:102070008DE616F80B3C43F00203F7E716F80B3C2D
:1020800043F00403F2E716F80B3C43F00803EDE7D6
:1020900016F80B3C43F01003E8E716F80B3C23F06E
:1020A0001F03E3E71A7842F0020288E71A7842F049
:1020B000040284E722F0070281E70121A0E613462B
:1020C000B4E60123B2E600BFC83AFE1F113AFE1F74
:1020D000104A10B5142404FB00246368012B03D1BB
:1020E000A368022B02D823B9002110E05C1F012C49
:1020F000FAD8094C54F823404CB1142101FB0020BC
:10210000064AC06852F823100B1A59425941084632
:1021100010BD00BF6CDB09006839FE1FA839FE1F27
:102120000C4A142303FB00225368012B0FD1936840
:10213000D91E01290BD8084951F8230040B107499D
:10214000D06851F823301B1A58425841704700207C
:10215000704700BF40DA09008439FE1FC439FE1FF2
:10216000A74AA848B2F86A10F8B5D38AA64DD46E2B
:1021700092F8277092F87B600B4403F500434168A6
:10218000E9802B81116FD3690B44916921449F4CE5
:10219000C5E90313836823709D4B6770D3F8ECC2C5
:1021A000A67067451146224602D8664540F2F8807F
:1021B00001245460B1F864400A8A22445208AA807B
:1021C000944A0468C0682C80688095881068924C96
:1021D000284420809089B1F858506080888828432E
:1021E000A08091F85A50887928438C4DA0712E68B0
:1021F000506A126AE060032EA26040F0E480D3F8D7
:10220000D401D3F84C370A2250435A43844B9A8066
:10221000844A186012781A77834A9E60127802F016
:102220000100C2F340025A61804A18611278C2F379
:1022300000029A777E4A1278C2F340025A77D1F8A8
:102240008420096B0A43013A032A1E4696BF794B44
:1022500000239B5CF360784B1B68B361FEF7DEFDE7
:10226000764B774A1A60774A77481178002900F050
:10227000B6804178002900F0B2800221927859603E
:10228000C2F38001C2F3C00282F00102D2B29A60AE
:10229000027881F00101C9B2D243D9601A74FFF704
:1022A000D9F900210846FFF713FF08B1FEF72AFA13
:1022B00000210120FFF70CFF08B1FEF747FA0021CB
:1022C0000220FFF705FF08B1FEF762FA00210320A4
:1022D000FFF7FEFE08B1FEF787FAF17F0420FFF753
:1022E000F7FE08B1FEF7A4FA217C052001F00101F8
:1022F000FFF7EEFE08B1FEF7E3FA2B68012B06D1DB
:1023000000210620FFF7E4FE08B1FEF709FB4F4964
:102310004F4E00220B6856F8044B01330132B3FBD9
:10232000F4F0072A04FB103341F8043BF2D10020FB
:10233000FFF7F6FE10B10020FEF728FB0220FFF7A2
:10234000EFFE10B10120FEF721FB0120FFF7E8FEB0
:1023500010B10020FEF77CFB0320FFF7E1FE10B177
:102360000120FEF775FB3B493B4E00220B6856F8F7
:10237000044B01330132B3FBF4F0072A04FB1033A2
:1023800041F8043BF2D1FFF7C9FB2B68052B08BFCE
:102390000221BDE8F84018BF0121002002F0ECBD89
:1023A000D3F808C3674501D8664501D9022400E780
:1023B000D3F824C3674501D8664501D90324F8E65C
:1023C00000226260F6E6042E06D1D3F84402D3F868
:1023D0007C320A22504318E70020024616E717799C
:1023E000F90703D5017911F0010F01D1012145E76A
:1023F000FF0703D5C90701D503213FE700213DE7CA
:10240000AC38FE1F583FFE1F203AFE1F343AFE1F15
:102410004014FE1F5838FE1F7C3AFE1FCC3AFE1FA8
:102420003C3AFE1F7A3FFE1F793FFE1F993AFE1F7E
:10243000903AFE1F2FDC09005C39FE1F5C3AFE1F3C
:102440000200000B503FFE1F923AFE1FA839FE1FEC
:102450006839FE1FC439FE1F8439FE1FF7B5394E97
:10246000394C33786088DF07D4E9015140D5374BC8
:102470001B68072B05D1CDE90001FEF777FBDDE9ED
:10248000000133786FF300033370314B1A78D607AD
:1024900005D56FF300021A702E4A002616701A78BE
:1024A000970708D56FF341021A7000222A4EC3E93C
:1024B0000522726032801A78560708D56FF38202BF
:1024C0001A700022244EC3E90522726032801A7805
:1024D000170707D5214E6FF3C3021A70327822F026
:1024E0003F0232701A78D60644BF6FF304121A7096
:1024F0002378DA070FD5E268194C2378B2FA82F212
:1025000013F001074FEA521207D0FEF765FB23785C
:102510006FF30003237003B0F0BD13F0020606D082
:102520002946FEF759FB237867F34103F2E75B077F
:10253000F1D531464FF6FF70FEF74EFB237866F378
:102540008203E7E7C83AFE1FE03AFE1FCC3AFE1FBF
:10255000043AFE1F8941FE1F8041FE1FC73AFE1F3D
:10256000FC39FE1F08B500F0E1F900F05FF900F05A
:102570008FFB064B1A7822F003021A7000225A7061
:102580001A71DA705A719A709A7108BD903AFE1FEA
:1025900008B58C2008F088FB003818BF012008BD62
:1025A00008B5892008F080FB003818BF012008BD5D
:1025B00038B50120054D00F0DEFA02202C7800F03D
:1025C000DAFA287844EA4000C0B238BDC63AFE1FA5
:1025D000F8B5854F854C3E68012E4FF0000500F0A0
:1025E0008880072E45D1824E3378DA0738D500F03F
:1025F000E1FA00F087F97F4B5A7A197A013A052AF5
:1026000008D8DFE802F0030F19141E237A4A157860
:1026100005F00105042968D006291CD003291BD127
:10262000764A63E0744A1578C5F34005F2E7724ACA
:102630001578C5F38005EDE76F4A1578C5F3C00539
:10264000E8E76D4A1578C5F30015E3E76A4A15789F
:10265000C5F34015DEE71D7433786FF30003337064
:1026600033789B0705D500F023FB33786FF34103E4
:102670003370A37A6BB1012B40F08180604B1A78E4
:1026800063789A42637914BF43F001036FF3000348
:102690006371A57A002D40F08B80FFF781FFE07217
:1026A000FFF776FF23782073C3F34002824278D08D
:1026B0006269092A75D960F3410323706561237843
:1026C000E17A226903F0010088426ED0092A6CD9B0
:1026D00061F30003237000232361A37A032B9ABFC5
:1026E0000133DBB20023A372F8BD464A1278DA73D5
:1026F000B2E7E379D3B1237A312B14D9A37943F02C
:102700000103A371404B1D70FFF752FF3C4B6070FB
:1027100018703E4B1870072000F0ABF8637A43F056
:1027200001036372A5E701332372A2E7364B1B78DE
:10273000E3B1374B1B78002B9BD03046013600F0BD
:10274000DBF9082EF9D12C4B1A781B78A37002F014
:102750003F023F2A1BBF627942F0020201226271EE
:1027600018BF0022E2700122E27182E73046013692
:1027700000F07AF9082EF9D10023E371D4E7022B97
:1027800087D1072000F0A3F81C4A637A127803F07F
:1027900001039342637914BF43F002036FF34103D3
:1027A00076E763690133636189E70132226194E767
:1027B000012D03D1FFF7FCFE60708EE7022D8CD156
:1027C000144B9B88072013B93B68012B06D100F0FE
:1027D00067F8637A6FF3000363727EE700F049F8ED
:1027E000637A43F00103F7E7CC3AFE1F903AFE1FED
:1027F000C83AFE1F043AFE1FC73AFE1FA83AFE1F42
:10280000703AFE1FC63AFE1FC43AFE1F1C38FE1F58
:10281000C53AFE1F5838FE1F08B500F0E7F900F072
:1028200083F8BDE8084000F0E5BA00BF08B5012113
:102830008E2008F03BFA01218F2008F037FA0121A1
:10284000972008F033FA0121982008F02FFA01218F
:10285000992008F02BFA01219A2008F027FA01218B
:102860007A2008F023FABDE8084001217C2008F016
:102870001DBA072808B502D008280AD008BD0121D2
:10288000442011F093F901217820BDE8084008F0B8
:102890000DBA0121452011F089F901217920F4E7D1
:1028A000072808B502D008280AD008BD0121442015
:1028B00011F07CF900217820BDE8084008F0F6B955
:1028C0000121452011F072F900217920F4E7072851
:1028D00008B502D008280DD008BD4420012111F010
:1028E00065F9782008F0E0F9054B003818BF0120A1
:1028F0001870F1E74520012111F058F97920F1E72E
:10290000A83AFE1F074B587A1B7A022B07D0032BDD
:1029100003D0012B05D1FFF7ACBFFFF7D8BFFFF7FE
:10292000BFBF7047043AFE1F704700BF08B50121C2
:102930008E2008F0BBF901218F2008F0B7F90121A2
:10294000972008F0B3F90121982008F0AFF9012190
:10295000992008F0ABF901219A2008F0A7F900228C
:102960001D49312011F09DF845F61F6101200FF03F
:1029700069F800200FF086FA00200FF021FA0120FC
:102980000FF046FA01200FF01BFA02200FF040FA78
:1029900002200FF015FA03200FF074FA03200FF055
:1029A0000FFA04200FF06EFA04200FF009FA052048
:1029B0000FF068FA05200FF003FA084B0022C3E974
:1029C0000022C3E90222C3E904221A765A769A76D3
:1029D000C022DA7608BD00BF2B450800AC3AFE1FC6
:1029E000204A137E002B3CD00123537653690F3BC2
:1029F000022B1369A3F10F038CBF00210121022BCD
:102A00008CBF0023012343EA4103D1680F39022917
:102A10008CBF0021012143EA810351680F3902294B
:102A20008CBF0021012143EAC10391680F390229BB
:102A30008CBF0021012143EA011311680F390229DB
:102A40008CBF0021012143EA4113D17E21F03F01D7
:102A50000B43D3760023C2E90033C2E90233C2E953
:102A600004337047AC3AFE1F013808B5052827D853
:102A7000DFE800F0030F23192C360221262011F085
:102A800095F84FF480424EF65131092012F008F8C3
:102A900016E00221432011F089F84FF480424EF6EF
:102AA00051310A20F2E70221252011F07FF84FF47E
:102AB00080424EF651310820E8E701200FF03AF845
:102AC0000C4B01221A7600225A7608BD02212420DE
:102AD00011F06CF84FF480424EF651310720D5E7E3
:102AE0000221222011F062F84FF480424EF651315B
:102AF0000620CBE7AC3AFE1F013808B5052839D8C7
:102B0000DFE800F0030F2118262F4EF6513109207F
:102B1000002211F0C5FF01212620BDE8084011F078
:102B200045B84EF651310A20002211F0B9FF0121BB
:102B30004320F2E74EF651310820002211F0B0FF99
:102B400001212520E9E7BDE8084001200FF00CB87D
:102B50004EF651310720002211F0A2FF012124205E
:102B6000DBE74EF651310620002211F099FF0121DA
:102B70002220D2E708BD013808B505280CD8DFE8C7
:102B800000F0030C100E12148D2008F08DF8084B85
:102B9000003818BF0120987608BD9B20F5E78C20EF
:102BA000F3E78A20F1E78B20EFE78920EDE700BF0C
:102BB000AC3AFE1F08B50B4B587A1B7A052B07D091
:102BC000062B09D0042B0CD1BDE80840FFF7D3BF7A
:102BD000BDE80840FFF748BFFFF78EFF024B002219
:102BE0001A7608BD043AFE1FAC3AFE1F7047024A2F
:102BF0001368013313607047AC3AFE1F024A5368F2
:102C000001335360704700BFAC3AFE1F024A93681D
:102C100001339360704700BFAC3AFE1F024AD3688D
:102C20000133D360704700BFAC3AFE1F024A1369FC
:102C300001331361704700BFAC3AFE1F024A53696B
:102C400001335361704700BFAC3AFE1F712008F09A
:102C50002FB800BF022838B504460D460CD0032813
:102C60000FD0012813D1002011F0F6FE294620468E
:102C7000BDE8384011F0F0BE11F0EEFE2946032009
:102C8000F6E7042011F0E8FE29460520F0E738BDFC
:102C90007047022A06D0032A06D0012A07D14FF432
:102CA000004100E00021D5E74FF48041FBE7704789
:102CB000024B9A7A197BD87AFFF7EBBF043AFE1FD2
:102CC00008B54B4B1B68013B062B00F28B80DFE8FD
:102CD00003F03A045E4A711D83004FF40041002066
:102CE00011F0BAFE0021012011F0B6FE4FF40041B0
:102CF000022011F0B1FE0021032011F0ADFE4FF4CF
:102D00000041042011F0A8FE002117E00021084630
:102D100011F0A2FE4FF40041012011F09DFE0021B0
:102D2000022011F099FE4FF40041032011F094FEAF
:102D30000021042011F090FE4FF40041BDE808404E
:102D4000052011F089BE4FF40041002011F084FEEF
:102D50004FF40041012011F07FFE0021022011F00C
:102D60007BFE00210EE00021084611F075FE0021D7
:102D7000012011F071FE4FF40041022011F06CFEB1
:102D80004FF40041032011F067FE0021B9E7002154
:102D9000084611F061FE0021012011F05DFE0021C6
:102DA000022011F059FE0021032011F055FE4FF4CE
:102DB0000041BEE74FF40041002011F04DFE4FF4FA
:102DC0000041012011F048FE4FF40041022011F0B3
:102DD00043FE4FF40041E7E70021084611F03CFEB6
:102DE0000021EEE70021084611F036FE0021B1E790
:102DF000CC3AFE1F704700BF024B1A786FF30002F7
:102E00001A707047C83AFE1F164B1B781A0741BF4D
:102E100015490A7842F001020A70D80606D512490F
:102E20000A7822F0030242F003020A70D90706D59D
:102E30000D490A7822F0050242F005020A709A074D
:102E400006D509490A7822F0090242F009020A70FF
:102E50005B0706D5044A137823F0110343F01103EE
:102E600013707047043AFE1FC83AFE1F704700BF38
:102E7000034B00221A601A7922F01F021A71704760
:102E8000CC3AFE1F704700BF2DE9F843824D2C68F5
:102E9000072C11D8DFE814F0080012005100AF0031
:102EA0008600F600C500E2007C4B9B7813F0010F12
:102EB00014BF012306232B60BDE8F883784EDFF8AA
:102EC000FCC133797748784913F0010F1DD0774F53
:102ED0003A7912F0010F18D09CF80080C8F340092D
:102EE00018F0020FCE4610D13C78F4B17478E4B1FA
:102EF00069F3000269F30003C0F800903A7133717E
:102F000087F8009086F801900224036841F2863227
:102F1000934294BF013300239CF8002003600B7898
:102F200062F300030B702C60C6E70B7843F01003CC
:102F30000B70002303600624E7E75D4B1B789E07B8
:102F40002CD45C4BD3F890245B4B1B689A422CBF6B
:102F500000220122514EF178C80602D5002A08BF8E
:102F60000324564B564A1B78928811F0200F18BF45
:102F7000042413F0010F18BF0724002A18BF0624E9
:102F80009B0701D510F076FB484BDB789F0707D4F1
:102F900096F90330002BB8BF0524C4E70122D9E716
:102FA0000524C0E73D4BDA78404BD9788E0720D412
:102FB00012F0800F18BF052493F90230002B3A4B12
:102FC0001978B4BF0120002060F38201B8BF022449
:102FD00019703B4B9B8812F0400F18BF0224002B46
:102FE000364B1B7818BF06249A079CD510F042FB7D
:102FF00099E70524E0E72D4B284ADB78D27899073A
:103000000DD412F0800F18BF05242749087813F05B
:10301000010363F3C30018BF02240870D9E7052435
:10302000F3E7224BDB789B0716D41C4B93F9033054
:10303000002BB8BF0524214E3278970701D510F038
:1030400019FB337813F0010F1D4B9B8818BF072421
:10305000002B08BF022466E70524ECE7174B1B781A
:10306000D80701D410F006FB0C4A0F4BD27812F0AF
:10307000300F1A7814BF0121002161F341021A7048
:10308000072318E7094BDB785A077FF54CAF13F09D
:10309000020F08BF022446E7CC3AFE1FE039FE1FAC
:1030A000923AFE1FD43AFE1FD03AFE1F503FFE1F39
:1030B000793FFE1F4014FE1F583FFE1F903AFE1F2F
:1030C0005838FE1F034B00221A704FF480325A60AA
:1030D000704700BFD83AFE1F08B510F09BFA044BAA
:1030E00033381A7918BF012060F341021A7108BD04
:1030F000D83AFE1F024B9A796FF300029A7170471B
:10310000D83AFE1F704710B586B0044605910020DE
:10311000074901F04BFC012300200021CDE900010B
:10312000059A0293214601F04FFC80B206B010BD13
:1031300038DC09002DE9F7434E4C4F4E23786FF3EE
:1031400000032370237C002565F3000323746A4683
:1031500004234FF480612846CDE900556580FDF7D2
:1031600065FF04230DEB03024FF480610120FDF79E
:103170005DFF424B0099019A994204F11C084DD120
:103180008A424DD0A56128464FF481633C4A002114
:10319000FDF74CFF3A484FF47F71FFF7B4FFB4F8E6
:1031A0001834834252D1344F35493A460023013313
:1031B00051F8040B5061432B02F11C02F7D100259A
:1031C0004FF01C0909FB05632846596900F05EF8B9
:1031D00038B13B6948F825307B61237C43F001031B
:1031E00023740135432D07F11C07EBD1237C13F029
:1031F00001033BD1626B002A38D0C6F8BC30636350
:103200000122204984F82424096871611E4984F848
:1032100025340968B16603B0BDE8F0839A4212D044
:103220000323A361237C164943F001032374124B4B
:103230000022013218695861432A41F8040B03F156
:103240001C03F6D112E00120A0619DE70A4B0C4956
:103250000022013218695861432A41F8040B03F136
:103260001C03F6D1237C43F00103237401230022C5
:10327000C7E700BFE03AFE1F4014FE1FAAAA55553B
:10328000FC3AFE1F1004080010040000422810B58C
:1032900037D81F4B1C2202FB0034A469062C32D8FD
:1032A000DFE804F0040F040F040F1A0002FB0030E3
:1032B0008368994229D3C06881428CBF0D200020C9
:1032C00010BD02FB003083688B421EDCC068884260
:1032D000B4BF0D200020F3E702FB003007EE901A88
:1032E00090ED027AF4EEC77AF1EE10FA0DD490ED7B
:1032F000037AF4EEC77AF1EE10FACCBF0D2000206D
:10330000DEE70320DCE70A20DAE70D20D8E700BF7C
:103310004014FE1F42281CD8104A1C23584313187F
:1033200012585B68002908BF1346022B08D0042BF3
:103330000CD0012B0FD000290CBF012002207047B8
:10334000074B1B68022B06D0042BF3E7044B1B68CA
:10335000FAE7032070470020704700BF4014FE1FAB
:103360004C3FFE1F394B1B682DE9F047072B384EA9
:10337000384B394C0CBF042101211960337813F00C
:103380000107C3F300080BD15A0709D4C3F3400265
:103390009B0705D4237862F300032370BDE8F08710
:1033A0002378DD07FAD4327850070BD52B4B1B78E6
:1033B0000BB90429F2D0237843F0010323700223D0
:1033C000E360EBE743F001037588D6F804A02370AF
:1033D00093076580C4F804A021D507BB204B4FF0AC
:1033E0001C0909FB0539D9F814309A4517D0012179
:1033F0002846FFF78FFF18BB51462846FFF746FFC8
:10340000F0B97388174A6380736842F825306360A7
:10341000C9F81430114BE76083F80080BEE73378B9
:103420009807C3F34001B9D4D307B7D52846FFF7AF
:1034300071FF38B90A4B1C2202FB05356B69A3608A
:10344000E060ABE74FF0FF33F9E700BFCC3AFE1F77
:10345000FC39FE1F4C3FFE1FE03AFE1F053FFE1FDA
:103460004014FE1FFC3AFE1F2DE9F843364F3B780F
:10347000002B66D1354B1B78590703D4344B1B788E
:10348000002B5ED0334C207810F0010559D101207B
:10349000314EDFF8D480FDF773FE2846FDF770FE4D
:1034A00035682378B5FA85F56D0943F001032846A0
:1034B0002370FDF789FD08BBD8F8D830DFF89C9061
:1034C00026485A1C1EBF0133C8F8D830C9F81C3032
:1034D0004FF47F71224BC9F80034FFF714FE1F4AE6
:1034E000C9F8FC034FF4816300212846FDF782FDF3
:1034F00028BB3068FDF768FD356010B11523E36027
:1035000002E001233B70E060D8F8BC30012B04BF1F
:10351000144A13794FF0000004BF43F00203137103
:10352000FDF714FE00210846FDF740FE0120FDF7DF
:103530000DFE0121BDE8F8430846FDF737BE1A230A
:10354000DDE7BDE8F88300BF053FFE1FFC39FE1F25
:10355000043FFE1FE03AFE1FF83AFE1FFC3AFE1F32
:10356000AAAA5555F03AFE1F4014FE1F021F002361
:10357000743052F8041F82420B44FAD11E20B3FB70
:10358000F0F0704708B500F06DFB00F0C5FA00F0F0
:1035900055FB0D4B93F8281021F0070183F82810F4
:1035A00093F82910002221F0030183F82A20C3E9AF
:1035B0000622C3E903221A805A801A719A605A615E
:1035C00083F8291008BD00BF503FFE1FF8B5B04D6D
:1035D0002B68072B30D1AF4C23785F070BD500F059
:1035E0008DFBAD4BAD4A1B7883F0010393732378B9
:1035F0006FF38203237023781E070CD5A74D28791B
:1036000000F0BAFAA64B5A681B886B612378AA614E
:103610006FF3C30323702378DD060CD59F4D287903
:1036200000F084FA9E4B5A681B886B612378AA616C
:103630006FF304132370F8BD012B9A4C11D100F0E5
:10364000FEFA074600F0FDFA064600F002FB1EB146
:10365000002814BF3E4600262379267043F001035C
:103660002371E66A002E2DD1304600F085FA236BD7
:103670008B4904EB8302496851631D2B1FD18A4893
:10368000FFF774FF2663E060E36A002B40F01881C7
:103690002A68032A00F0F480042A00F0F580E2682A
:1036A0009A42A3788CBF43F040036FF38613A37054
:1036B000E36A052B94BF01330023E362BBE70133C8
:1036C0002363E1E7012E16D1304600F055FAD4F815
:1036D000AC30734904EB83024968C2F8B0101D2B6B
:1036E00007D17248FFF742FF0023A060C4F8AC3056
:1036F000CAE70133FAE7022E16D1304600F03CFA51
:10370000D4F82831664904EB83024968C2F82C11C9
:103710001D2B07D16648FFF729FF00232061C4F85D
:103720002831B1E70133FAE7032E16D1002000F06B
:10373000FDF9D4F8A4315A4904EB83024968C2F870
:10374000A8111D2B07D15B48FFF710FF0023606114
:10375000C4F8A43198E70133FAE7042E17D1564A8A
:10376000B2F86610538A0B445B08B2F86410E36148
:10377000138A0B445B08B2F86A10A361D38A0B4426
:103780006362938AB2F86820134423627CE7052EB3
:103790007FF47AAF494E6269D6F8AC34934265D86B
:1037A000E369D6F8C8749A420BDA012000F060FA97
:1037B00094F82820012342F0010284F8282084F89C
:1037C0002032E3696269D91B8A420BD93B449A4291
:1037D00008D2022000F04CFA94F8283043F002039B
:1037E00084F8283094F82032E3B1D4F8243201333D
:1037F000202BC4F8243211D100270120C4F82472F0
:1038000084F8207200F050FA94F8283067F300032F
:1038100084F82830237943F0020302E023796FF320
:1038200041032371D6F87424A368D6F890749A42A1
:103830000BD22B68032B08D0032000F019FA94F860
:10384000283043F0040384F82830A3689F4203D84B
:103850002B68032B7FF418AF032000F025FA94F8AF
:1038600028306FF3820384F828300DE72B68042B8F
:10387000D8D1022000F0FCF9012000F015FAC9E7C8
:103880000E4BD3F850360AE70C4BD3F8343606E724
:10389000CC3AFE1FC83AFE1F8941FE1F043AFE1FA4
:1038A0008041FE1F503FFE1F843FFE1F0040FE1F51
:1038B0007C40FE1FF840FE1FAC38FE1F4014FE1F68
:1038C000012B16D12B68032B0BD0042B0DD000231A
:1038D000A2689A42A3788CBF43F001036FF3000300
:1038E000E5E6854BD3F8F836F2E7834BD3F8DC36C0
:1038F000EEE7022B40F088802B68032B41D0042B8D
:1039000045D000210846226A8A4246D8626A82422D
:1039100094BF00220122A17862F38611002284F86C
:103920002A20764AA170916AD26F0139012998BF85
:10393000012102F1FF3298BF84F82A10012AE278AF
:103940009DBF6FF3C302E27094F82A2042F0080290
:103950009ABF013284F82A20E270032B1FD1664AF5
:10396000A169D2F8F0211144A2688A42E17894BF9B
:103970000022012262F30001E170A2786FF3C71206
:1039800026E05D4AD2F8C006D2F88816BBE75A4A4C
:10399000D2F8A406D2F86C16B5E70122BBE7E278AC
:1039A000042B6FF30002E270E7D1534AD2F8FC1502
:1039B000D2F81806E26990428ABFD4F82822002281
:1039C00005329142C4F82822D7D8A27842F080026A
:1039D000A2702279900707D5E269616991421EBF02
:1039E000A27842F02002A270042B7FF461AEE3685B
:1039F000002B7FF75DAEA268A3699A423FF458AEF0
:103A0000A37843F0100352E6032B0FD12B68032B4E
:103A100004D0042B06D0002362695AE7364BD3F852
:103A20003037F9E7344BD3F81437F5E7042B42D19C
:103A3000012000F053F994F8293060F300030220CC
:103A400084F8293000F04AF994F8293094F82820B5
:103A500060F34103910784F8293006D5DBB2DB0718
:103A60005EBFA37843F00803A37094F828309F0743
:103A700007D494F82930DE0742BFA37843F002034D
:103A8000A370510704D518B9A37843F00203A370BB
:103A900094F828305A073FF50BAE94F829309B076D
:103AA0007FF506AE2B68032BA3780CBF43F004030D
:103AB00043F00203FBE5052B7FF4FAAD00F0A1F81B
:103AC0000F4B1B788BB90C4AD4F82C32D2F88C25CA
:103AD0009A4206D8E37823F0060343F00603E37026
:103AE000E6E50533C4F82C32E2E5E3786FF34103F1
:103AF000E3700023F6E700BF4014FE1FAC38FE1F42
:103B00008841FE1F08B500F017F900F079F8BDE80C
:103B1000084000F0A6B800BF034B00225A601A808C
:103B200001221A72704700BF8041FE1F10B500F0DD
:103B300001010446312007F0B9F8C4F340013220F6
:103B400007F0B4F8C4F38001332007F0AFF8FDF7B5
:103B50009DFA064A064BD2F8B003D968D2F89433DE
:103B6000044A01FB03031180536010BD4014FE1F83
:103B70004038FE1F8041FE1F10B500F001010446D1
:103B8000312007F093F8C4F34001322007F08EF89B
:103B9000C4F38001332007F089F8012C1BD0022CDC
:103BA0000FD014BBFDF79CFA124B13495A68D1F899
:103BB000CC33D1F8E813114802FB031302804360B1
:103BC00010BDFDF771FA0B4B0B499A68D1F83C34E4
:103BD000D1F85814EFE7FDF775FA064B06491A6855
:103BE000D1F80434D1F82014E5E700231A46194629
:103BF000E1E700BF4038FE1F4014FE1F8041FE1F5A
:103C0000704708B54C2007F04FF80A4B00381A6887
:103C100018BF012040EA4200186000F01F001F2872
:103C200003D1054B01221A7208BD0028FCD1024BBA
:103C30001872F9E7941BFE1F8041FE1F7047012098
:103C4000704708B5022000F049F880F00100C0B2CA
:103C500008BD08B5012000F041F880F00100C0B2B5
:103C600008BD7047014B00221A7070478941FE1F42
:103C70000228014606D003280CD0012811D180204B
:103C800007F014B8074BB3F870154FF400420B203F
:103C900010F006BF034B4FF40042B3F854150C204C
:103CA000F6E770474014FE1F022807D003280CD007
:103CB000012810D10021802006F0F8BF064BB3F890
:103CC000701500220B2010F0EBBE034B0022B3F85E
:103CD00054150C20F7E770474014FE1F012808B563
:103CE00003D0022808D0002008BD492006F0DCFFE0
:103CF000003818BF0120F7E74B20F7E708B50C4B59
:103D0000D8799B79022B07D0032B09D0012B0DD139
:103D1000BDE80840FFF7C8BFBDE80840FFF7A8BFEF
:103D20000138C0B2FFF7DAFF024B187008BD00BFC0
:103D3000043AFE1F8941FE1F704700BFFEE7FEE701
:103D4000FEE7FEE7FEE7FEE7FEE7FEE7FEE7000030
:103D50004FF0E022D2F80C3D23F4E0631843C2F8A0
:103D60000C0D70474209012300F01F0003FA00F018
:103D7000014B43F82200704700E100E043090122B3
:103D800000F01F0002FA00F02033024A42F823003C
:103D9000704700BF00E100E000F16040090100F55C
:103DA0006140C9B280F80013704700BF124BF0B5F4
:103DB0001D680021A94206D1104B00221868144644
:103DC00082420ED1F0BDD3E90164DA68101B0022F3
:103DD000824202D101310C33ECE7A75CB7540132C7
:103DE000F6E7D3E901158D4202D101320833E7E746
:103DF00001F8014BF7E700BFE0420A00FC420A006D
:103E00007047FEE70020704782B08DF807009DF8EC
:103E100007300BB900BEFDE702B0704730B50C4C5F
:103E2000450104EB401362510A7CD1E902451A7640
:103E30004A7C5A768A7C9A76CA7CDA760A7D1A7728
:103E4000044A02EB0010C3E90245436030BD00BFE5
:103E5000984BFE1FD84BFE1F0022DFE70122DDE753
:103E60000222DBE70322D9E7024B03EB0010024BEF
:103E700043607047D84BFE1FA8DE0900024B03EBDE
:103E80000010024B43607047D84BFE1FC8DE09008C
:103E9000074B1B6853F820301968064B03F12002CA
:103EA000022918BF1346044A02EB00104360704712
:103EB000904BFE1FE8DE0900D84BFE1F024B03EBC0
:103EC0000010024B43607047D84BFE1F28DF0900EB
:103ED000074B1B6853F820301968064B03F120028A
:103EE000022918BF1346044A02EB001043607047D2
:103EF000904BFE1F48DF0900D84BFE1F024B03EB1F
:103F00000010024B43607047D84BFE1F88DF09004A
:103F1000024B03EB0010024B43607047D84BFE1F6F
:103F2000A8DF0900FEE738B50A680F4B03EB8203F0
:103F30000D46D3F820310446984729680A2900D94C
:103F4000FEE70A4B200103EB04121950084B1B68D3
:103F500053F824301968022905D159791879BDE838
:103F6000384005F057B838BDA8DE0900D84BFE1F11
:103F7000904BFE1F012803D10439062911D9FEE711
:103F800002280ED107290CD08B1F18BF012302294C
:103F900007D0A1F10802012918BF012A01D903B1F4
:103FA000FEE770477047000010B5064C204606F04B
:103FB00027F8054B236506F0F9F8BDE8104005F039
:103FC00047BC00BFFC4BFE1F555AAAA538B5136C61
:103FD000072B0D46144628D1104605F05BFC236DD7
:103FE000DB68012B05D100230228636021D1022068
:103FF00038BD02280ED1002BF9D10F4B03EB05136E
:104000005B68002BF3D02146284605F0DFFC70B139
:104010000020EDE710B100236360E9E7002BF7D142
:10402000636D1A68054B1A65E2E70120E0E7052099
:10403000DEE70028EFD1EBE7783F0A00FC4BFE1FDC
:1040400010B50846074C1146226D0B689A4205D1FF
:1040500006F06CFA044B2365002010BD05F00EFD40
:10406000FAE700BFFC4BFE1F555AAAA506F054BA4A
:10407000084606F0ADBC08B529B106F059F9BDE80F
:10408000084005F0E5BB06F02DF9F8E710B50C4641
:1040900006F0A4FC2070002010BD08B508461146AB
:1040A0001A46029B06F098F9BDE8084005F0D0BB1F
:1040B00008B5084606F0D6F9BDE8084005F0C8BBCB
:1040C00008B5084606F0FCF9BDE8084005F0C0BB9D
:1040D00008B508461146C1F30F111A4606F0E8FB71
:1040E000BDE8084005F0B4BB08B506F055FCBFF3C9
:1040F0004F8F08BD82B08DF807009DF807300BB9CF
:1041000000BEFDE702B0704782B08DF807009DF851
:1041100007300BB900BEFDE702B070470329F8B5C0
:1041200007468CBF002001201C4616460D46FFF7AF
:10413000EBFFB7FA87F04009FFF7E6FFA24234BF72
:1041400000200120FFF7E0FFB4F5807F8CBF002046
:104150000120FFF7D9FF101B80B2B0F5807F8CBF24
:1041600000200120FFF7D0FF16F0EAFFA90001F1BF
:10417000804101F5B421E4B2D1F8803423F04073DA
:10418000C1F88034D1F8003423F0030343F0020374
:10419000C1F80034D1F80035621ED2B223F0FF031B
:1041A0001343C1F80035D1F80005321B531EDBB2B2
:1041B00020F47F4242EA0323C1F8003516F0DCFF09
:1041C0000020F8BD0329024608B58CBF002001205D
:1041D000FFF79AFFB2FA82F04009FFF795FF054B0F
:1041E000D868054B53F821305B78C0B2D84000F056
:1041F000010008BD00A00540744CFE1F032970B5E6
:1042000004468CBF002001201646FFF77DFFB4FA5C
:1042100084F04009FFF778FF184B53F8215016F04F
:10422000C3FF297816480AF0F4FA297814480124C3
:1042300004FA01F10022C9B20AF029FB042E12D1BE
:1042400029780F4804FA01F12246C9B20AF01FFB8F
:104250000C492A780B7894401C43E4B20C7016F099
:10426000BFFF002070BD002EF9D1064A29781378CF
:104270008C4023EA04041470F1E700BF744CFE1F65
:1042800000A00540844CFE1F70B50546081E18BFEF
:1042900001200C46FFF738FFB5FA85F04009FFF71B
:1042A00033FF48888B88984234BF00200120FFF7F5
:1042B0002BFF8888B0F5807F8CBF00200120FFF79E
:1042C00023FF88884B881B1A9BB2B3F5807F8CBF75
:1042D00000200120FFF718FF274B097843F8214001
:1042E0008B0003F1804303F5B423D3F8002422F0BC
:1042F0000302C3F80024D3F8802422F04072C3F8EC
:104300008024D3F8002442F44032C3F800246278B9
:10431000D3F80004120220F4E06002F4E0620243E9
:10432000C3F8002428460022FFF768FF2378267987
:10433000A2789B0003F1804303F5B423751ED3F8E4
:104340000015EDB221F0FF012943C3F80015D3F8A1
:104350000015013A921B21F47F41D2B241EA0222B8
:10436000C3F80025D3F8002422F0030242F0020231
:10437000C3F8002470BD00BF744CFE1F032970B544
:1043800005468CBF002001200C46FFF7BDFEB5FAA4
:1043900085F04009FFF7B8FE1C4E56F821301B7817
:1043A0009B0003F1804303F5B4232846D3F800248F
:1043B00022F00302C3F800240022FFF71FFF56F883
:1043C00024301B789B0003F1804303F5B423D3F81A
:1043D000002422F4E062C3F80024D3F8002422F47D
:1043E0004032C3F80024D3F8802422F04072C3F88E
:1043F0008024D3F8002522F47F42C3F80025D3F8A7
:10440000002522F0FF02C3F8002570BD744CFE1F8A
:104410000329024608B58CBF00200120FFF774FE77
:10442000B2FA82F04009FFF76FFE890001F1804186
:1044300001F5B421D1F80005D1F80035DBB2023323
:10444000C0F30720184408BD08B545F6A5239842D7
:104450001BD009D842F6746398420CD043F2CC3397
:10446000984210D0012008BD4EF24273984214BF0A
:1044700001200320F7E70723062200215C2006F035
:10448000CFFA0220EFE70823F6E70020EBE782B03F
:104490008DF807009DF807300BB900BEFDE702B0AC
:1044A000704782B08DF807009DF807300BB900BE49
:1044B000FDE702B0704700002DE9F04701460446D1
:1044C00000200DF015FF134D134B0127A7401E6967
:1044D000DF6005EB04138046DB68012B4FEA04190B
:1044E00003D1214600200EF007F8B8F1010F0ED1DC
:1044F0003E40E640012E0AD115F8093005EB0902CD
:104500002BB153681BB1BDE8F047107A1847BDE8DE
:10451000F08700BF8042FE1F0070034008B50020F6
:10452000FFF7CAFFBFF34F8F08BD08B50120FFF7A3
:10453000C3FFBFF34F8F08BD08B50220FFF7BCFFD4
:10454000BFF34F8F08BD00BF0020704700207047A9
:1045500082B08DF807009DF807300BB900BEFDE76B
:1045600002B07047EFF310807047EFF31080704790
:10457000EFF310807047EFF310807047EFF3108077
:104580007047EFF310807047EFF310807047EFF340
:1045900010807047EFF310807047EFF31080704782
:1045A000EFF310807047EFF310807047EFF3108047
:1045B0007047EFF31080704782B08DF807009DF8C8
:1045C00007300BB900BEFDE702B0704738B50024D4
:1045D000184D19496C702246642330202B70AC7042
:1045E0000FF05FFA4E200FF057F8686020460DF08C
:1045F000A1FA4FF47A736968B1FBF3F120460DF02C
:1046000021FA2046C5E90244C5E90444C5E9064447
:10461000C5E90844AC62FCF799FD21462046FCF749
:10462000C5FD0120FCF792FD0121BDE83840084698
:10463000FCF7BCBDC042FE1F1D45080008B50020A8
:104640000DF092FA054B0022C3E90222C3E90422CD
:10465000C3E90622C3E908229A6208BDC042FE1FD0
:1046600038B59F4CA368002B2FD0D4E903121A440D
:10467000226162691A446261A2691A44A261E26914
:104680001A44E261226A1A442262626A1A4462622D
:10469000A26A19441344A362924BE1601B79002083
:1046A0009B07A06001D50EF0E5FFFEF75BFEFCF76F
:1046B00001FEFEF7E9FBFEF789FFFDF789FFFEF734
:1046C000A3FBFDF7B5F9FDF74BFDE368042B84BFB1
:1046D0000023E3602369092B40F2C580824B1B78DD
:1046E00000252561002B00F0BA80FCF795FDFEF750
:1046F000C9FBFEF7FFFCFCF751FC0120FCF740FD75
:1047000010F06EF918F062F90DF020F900F0C4F91C
:1047100029464F200FF0B0F9012151200FF0ACF9DC
:10472000012152200FF0A8F9294656200FF0A4F9D4
:10473000012150200FF0A0F9294658200FF09CF9D4
:10474000294659200FF098F9294628460FF094F988
:10475000294601200FF090F9294602200FF08CF92C
:10476000294603200FF088F929461A200FF084F912
:1047700029461B200FF080F929461C200FF07CF9F8
:10478000294630200FF078F9294631200FF074F9CE
:10479000294632200FF070F901200EF0F3FE284672
:1047A0000EF0F0FE514800F050F951480FF0CEF9EC
:1047B00028460FF053F901214F200FF05DF9012138
:1047C00051200FF059F9012152200FF055F9012124
:1047D00056200FF051F9012150200FF04DF9012121
:1047E00058200FF049F9012159200FF045F9012116
:1047F00028460FF041F9012108460FF03DF901214B
:1048000002200FF039F9012103200FF035F90121C1
:104810001A200FF031F901211B200FF02DF9012191
:1048200031200FF029F9012132200FF025F931480C
:104830000DF056F8304817F003FF012018F0E0F9AA
:104840002E4800F0D5FA2E4810F090F82D4800F0D0
:104850009FF8FBF705FFFBF705FFFBF704FFFEF7EB
:104860003BFCFDF74DFA6369132B03D90023636109
:10487000FDF7F4FDA369312B84BF0023A361E36935
:10488000632B03D90023E361FEF7AAF8236AB3F58B
:10489000FA7F24BF00232362636AB3F57A7F03D3D0
:1048A00000236362FEF7E0FDA26A42F20F739A42B0
:1048B00088BF0023E26A88BFA36264235A4342F29E
:1048C00073718A42217898BFB2FBF3F39942617801
:1048D000DAB288BF22708B4288BF6270A27038BD86
:1048E000C042FE1FF03AFE1F5438FE1FE0EB0900E5
:1048F000F40E0A004CFE090048190A00FCEB0900FE
:10490000C4170A0058F60900094A08B5936801332C
:104910009360084B1B7813B10020FCF74FFC064B4B
:104920001B7823B1BDE808400120FCF747BC08BD57
:10493000C042FE1F5238FE1F5038FE1F0A449142EB
:1049400000F1FF3300D1704710B511F8014B03F8A7
:10495000014F9142F9D110BD012838B50A4605D85A
:104960000A4BD3E9001400238B4206D10123002116
:10497000C92006F03AF8002038BD54F82350A84268
:1049800001D00133F0E70120F6E700BF5CF6090033
:1049900028B1042309220021C92006F026B8024BC1
:1049A000186804F0E7B900BF58F6090038B50D469D
:1049B0000A210446FFF7D0FF28B129462046BDE86A
:1049C000384004F0F1B938BD2DE9F3410C460B2114
:1049D000DDE908679DF8288001920546FFF7BCFFD6
:1049E00038B1019A54B902230B222146C92005F09F
:1049F000FCFF0020002102B0BDE8F08121462846DE
:104A0000CDE90867CDF8288002B0BDE8F04104F098
:104A1000E3B910B50C210446FFF79EFF20B12046F4
:104A2000BDE8104004F0C8BA0020002110BD00BF4E
:104A3000012A02D0022A06D0704707230A460146FF
:104A4000FF2005F0D2BF0623F8E770B50246C0B1DB
:104A5000104C25688DB92060006840B106F0A8FBB5
:104A600028B12B462A462946FF2005F0BEFF2368C1
:104A7000586868B118F078FB50B100231A461946FF
:104A800001E00B230146BDE87040FF2005F0ADBFFB
:104A900070BD00BF706AFE1F10B50B4C23685BB180
:104AA0001B6833B106F0ECFB0B2102460020FFF738
:104AB000BFFF0023236010BDBDE810400B22194644
:104AC000FF2005F092BF00BF706AFE1F012810B5DD
:104AD000C4B207D9022321460122BDE81040FF20BD
:104AE00005F083BF032901D90423F4E706F064FA33
:104AF000012102462046BDE8104099E737B501285C
:104B00004FF000020C460092ADF80420C5B207D960
:104B1000022302222946FF2005F067FF03B030BDC3
:104B200009B90123F5E7694606F05CFA009B2360AA
:104B3000BDF80430A380024602212846FFF778FF23
:104B4000ECE7022810B5C4B207D90323214603229B
:104B5000BDE81040FF2005F048BF042901D9042317
:104B6000F4E706F0A3FB032102462046BDE810400F
:104B70005EE730B5022885B00C46C5B207D90323DD
:104B800004222946FF2005F030FF05B030BD09B9E9
:104B90000123F5E701A906F0CDFB019B2360029BF1
:104BA0006360BDF80C302381024604212846FFF7DC
:104BB0003FFFEAE7022870B504460E4615461FD9A6
:104BC0000323C1B20522FF2005F00FFF01230B2DA7
:104BD00006D905231A46E1B2FF2005F006FF01239E
:104BE0000022D1B28D420DD8D3B92A463146204693
:104BF00006F0D0FB05210246E0B2BDE8704017E7A1
:104C00000023E4E756F831100A2902F10102E8D93D
:104C10000523E1B21A46BDE87040FF2005F0E5BE6D
:104C200070BD022870B504460E4615461FD90323F1
:104C3000C1B20622FF2005F0D8FE01231A2D06D9A5
:104C400005230622E1B2FF2005F0CFFE012300225A
:104C5000D1B28D420DD8D3B92A463146204606F04E
:104C6000DFFB06210246E0B2BDE87040E0E600232B
:104C7000E4E756F83110192902F10102E8D9E1B24E
:104C80000523BDE870400622FF2005F0AEBE70BDD2
:104C900002282DE9F04104460F4616461D4620D94C
:104CA0000323C1B20722FF2005F09FFE01231A2D26
:104CB00006D905230722E1B2FF2005F096FE012365
:104CC0000022D1B28D420ED8DBB9324639462B468E
:104CD000204606F00DFC07210246E0B2BDE8F04197
:104CE000A6E60023E3E756F83110192902F1010284
:104CF000E7D9E1B20523BDE8F0410722FF2005F026
:104D000074BEBDE8F081022870B5C4B207D9032390
:104D100021460822BDE87040FF2005F066BE072945
:104D200001D90523F4E706F037FC082102462046A6
:104D3000BDE870407CE6022810B5C4B207D9214610
:104D40000323BDE810400922FF2005F04EBE06F007
:104D500037FC092102462046BDE8104068E618F0FD
:104D600033BA18F04FBA00BF08490A682AB950B9D7
:104D7000074B0B60186800F01BB802230022114695
:104D8000FF2005F032BE0423F9E700BFF042FE1F0A
:104D9000F4EB090000F00FB800F00FB800F00FB806
:104DA00008B500F00EF880F00100C0B208BD00BFE9
:104DB00000680EF011BE0EF011BE0EF013BE0EF024
:104DC00013BE0EF013BE0000084B10B51C680A4657
:104DD00034B905230021502005F007FE002010BD46
:104DE000022801D90423F5E70120F8E70C43FE1F50
:104DF0002DE9F0472A4F3B68012B024607D10623D5
:104E00000022BDE8F0471146502005F0EEBD08B97C
:104E10000923F6E74369234D234A2860191F1646E4
:104E2000083351F8040F10B110680028E7D19942F7
:104E300002F10402F5D10024DFF87090DFF870A0D1
:104E4000A0462B685B6953F8240060B1037A53B124
:104E5000838D29F8143004F80A8000F089FB40B9EA
:104E6000022346F824300134032CEAD101233B60AD
:104E700011E0002209231146502005F0B6FD2B68F1
:104E80005B691A680AB1C6F800805A680AB1002244
:104E900072609B680BB9BDE8F0870023B360FAE746
:104EA0000C43FE1F1043FE1FF442FE1F0043FE1F73
:104EB0000643FE1F184A1368012B2DE9F04107D065
:104EC000BDE8F041062310220021502005F08DBDE1
:104ED000124D13482B685969002351F823401CB127
:104EE00050F82340012CEBD00133032BF5D10024E3
:104EF0000B4E146027462B685B69185920B1037A62
:104F000013B1A75100F0B2FB04340C2CF3D10023F1
:104F10002B60BDE8F08100BF0C43FE1F1043FE1F55
:104F2000F442FE1F38B50D460F210446FFF74CFF33
:104F300068B10E4B1B685B6953F82400C38DAB420C
:104F400007D807230F220021502005F04EFD012035
:104F50000BE0074B53F82430022BF8D1294600F020
:104F600088FB10B9034B23F8145038BD1043FE1FC3
:104F7000F442FE1F0043FE1F2DE9F0410D460321C0
:104F80000646FFF721FF08B901241CE0224B1B68ED
:104F90005B69022D53F8267018D0032D2BD0012DFC
:104FA00032D1DFF8788058F82630022B2CD13846E1
:104FB00000F0AAFB04460028E6D148F8265029460E
:104FC0003878FBF777FE2046BDE8F081DFF84C80AB
:104FD00058F82630012B0AD0023B012BD4D848F8D0
:104FE000265038782946FBF765FE0024EBE7384663
:104FF00000F01AFCDEE7094A52F82630023B012B8A
:1050000002D842F82650ECE7062303220021502064
:1050100005F0EBFCB8E700BF1043FE1FF442FE1F93
:10502000134B13B51968044639B9052304225020DF
:1050300002B0BDE8104005F0D8BC022803D9042313
:105040001A460021F3E70B4B1B685B6953F82000FD
:1050500001900FF0B5FF084A135D013313550FF0AF
:10506000CBFF019802B0BDE8104000F027BC00BFA4
:105070000C43FE1F1043FE1F0643FE1F134B19680F
:1050800070B5044631B905231A46BDE8704050207A
:1050900005F0ABBC022803D9042305220021F4E764
:1050A0000B4B0C4D1B685B6953F820600FF0BCFF85
:1050B0002B5D0BB1013B2B550FF0D2FF2B5D23B9BC
:1050C0003046BDE8704000F01DBC70BD0C43FE1FB3
:1050D0001043FE1F0643FE1F38B50C46112105463E
:1050E000FFF772FE30B13CB9012311222146502056
:1050F00005F07BFC01200DE0084B1B685B6953F851
:10510000250000F023FC20B1012804D002232360F5
:1051100002E0206038BD20600020FBE71043FE1F46
:105120000C4A10B514683CB9052312220021502006
:1051300005F05BFC012010BD022801D90423F4E72F
:1051400011B901231222F2E7034A52F820200A6023
:105150000020F0E70C43FE1FF442FE1F38B50F4B52
:105160001D680C463DB9052330220021502005F072
:105170003CFC012038BD022801D90423F4E711B911
:1051800001233022F2E7064B1B685B6953F82000CD
:1051900000F0E6FB20700020ECE700BF0C43FE1F90
:1051A0001043FE1F38B50F4B1D680C463DB9052353
:1051B00031220021502005F018FC012038BD0228C2
:1051C00001D90423F4E711B901233122F2E7064B98
:1051D0001B685B6953F8200000F0BFFB20700020C3
:1051E000ECE700BF0C43FE1F1043FE1FF8B5254B34
:1051F0000A46196831B905230622502005F0F5FB4F
:105200000120F8BD172804D81F4B19688B888342EA
:1052100003D9022306220021EFE70AB90123F9E7A7
:10522000CB681D5C4B6953F82530002BE8D0096929
:105230005E78242404FB0011144C907934F8164055
:105240001E6B182707FB0464A478B4B10C7C84425D
:1052500015D3082802D91068400010D5906810B9FD
:10526000487B0028DAD00A4850F825000128C7D129
:105270001846BDE8F84000F076BB0828EED90323B5
:10528000C8E700BF0C43FE1F1043FE1F0043FE1F74
:10529000F442FE1F70477047704770B5084D2A688A
:1052A0006AB1084E00242B685B69185920B1037A53
:1052B00013B1311900F0B0FB04340C2CF3D170BDE4
:1052C0001043FE1FF442FE1F0E4B1B6810B4B3B117
:1052D0009C68245C586950F8240080B1012A02D0EF
:1052E000032A06D05AB90A465DF8044B196900F042
:1052F000C9BB0A465DF8044B196900F0A7BB5DF80D
:10530000044B70471043FE1F38B50B4B1B6893B11D
:105310009A685B69155C53F8254064B1204600F03B
:1053200083FA40B9054B022243F825202078BDE8D6
:105330003840FBF7A7BC38BD1043FE1FF442FE1FE8
:10534000074B1B685BB19A685B69125C53F82230AB
:105350002BB111B19B6A13B118475B6AFBE7704729
:105360001043FE1F2DE9F0438E7CB6080636202E32
:105370004FF00005ADF2044D80460F4694BFF6B2E3
:105380002026A9462B46BC7CE9B2A14218D31C4674
:10539000D8F80C1098F8020007F0D6FE6B460021F2
:1053A0001A460D46C8B2844203F1080366D898F83D
:1053B0000200494607F052FB0DF2044DBDE8F083B0
:1053C000D8F81090D7F808E07B69B9F1000F15D133
:1053D00003EBC50CDCF80420BEF1000F0CD052002A
:1053E00042F0404298F80200013507F071FEEBB23E
:1053F000B342CDD22346C6E7D204F1E7B9F1010F9B
:1054000015D103EB051C6400DCF80400DCF80C206B
:10541000E4B2BEF1000F06D0C00BD20B42EA00424C
:1054200042F0C022DEE7D20042EAC042F8E703EBD6
:10543000451CA400DCF80420DCF80C30DCF8140077
:10544000DCF81CC0E4B2BEF1000F0DD04FEA525E92
:105450005A0D120442EA0E6242EA5C52400D42EAE0
:1054600000224FF00209BDE7DB084FEAD20E1A0412
:1054700042EA0E6242EADC02C008F0E7786950F8BE
:10548000310043F8040CB86803F8085C003818BF12
:10549000012003F8070C013184E77FB504460121A0
:1054A000807807F0A5FF002694F83820F3B29A42DE
:1054B00001D804B070BDE26B52F82350AB69A3B9B8
:1054C0008DF808300193AB68297FA078003B18BFA6
:1054D000012300936B696A461B6807F05FF96B69EB
:1054E000297F5A68A07807F0F3FDAB69012B03D13F
:1054F00029462046FFF736FF0136D5E7F8B50368A1
:10550000194C1646426822600F469902B16948BF9D
:1055100042F00042054648BF226089B903F070633B
:10552000B3F1C06F07D02B68002B0CDA236843F06F
:105530008043236007E001230822502005F070FA21
:10554000B369012BEFD13388A3803B780749A3715E
:10555000083595F84030E360A560A1F10800BDE88A
:10556000F840FBF7A9BB00BF9041FE1F9841FE1F0A
:105570002DE9F041394A4378818D22F81310426BAE
:105580003749126851F823100446807806F0F6FF78
:105590006378344A012110F0FF0FD1541AD1A0785A
:1055A00008F060F9226BA38D182101FB03239A7880
:1055B00022B19A7D597DA07808F092F8A38D226BD4
:1055C000A078182101FB0323197D08F0CFF82046AD
:1055D000FFF763FF60782449202301EB80124FF628
:1055E000FF75013B13F0FF0322F8025BF9D194F839
:1055F00038C0470101EB8010DAB2944505D8A07895
:1056000007F0DEFEC0B2BDE8F081E26B52F8232065
:105610009569012D19D0032D06D05DB91588127F2B
:105620003A4421F8125005E092F80EE00026F5B257
:10563000754501D30133DFE7157FB2F800803544AB
:105640003D44013621F81580F1E71588127F3A4470
:1056500021F812508581C581ECE700BFF84AFE1F92
:10566000B81B0A001443FE1F1843FE1F807807F082
:1056700097BD70B5044686B080780E4607F018FDD9
:1056800000283AD1226BA078182575435319525D32
:1056900019890491197901915979029199790391A4
:1056A0009B7A059301A907F0D9FE236B2B441A8A34
:1056B00004929A789AB11A7B01925A7B02929A7B51
:1056C00003929A7C059201A95A78A07807F080FF8E
:1056D000236BA0782B449A7D597D08F001F8236B49
:1056E000A0781D44297D08F041F8A07807F068FEF5
:1056F00018B96278034B23F81260003818BF0120F4
:1057000006B070BDF84AFE1F70B5436B41781A6849
:10571000424B86B053F821100446807806F02EFFE5
:105720000546002863D1A07808F09CF862783C4BCD
:10573000A07833F81230226B18265E439319925DDD
:1057400019890491197901915979029199790391F3
:105750009B7A059301A907F081FE236B33449A7865
:10576000AAB11A8A04921A7B01925A7B02929A7BFE
:1057700003929A7C059201A95A78A07807F028FF35
:10578000236BA07833449A7D597D07F0A9FF236BE2
:10579000A0781E44317D07F0E9FF2046FFF77DFE2B
:1057A00094F83820A078EBB29A4223D863781D4A47
:1057B000D35CABB194F8203043B10122022108F050
:1057C0006FF8A0780122032108F06AF8637A23B900
:1057D000A0780122042108F063F8A07808F022F8EC
:1057E000A07807F0D3FDC5B2003D18BF0125E8B28F
:1057F00006B070BDE26B52F82360317B21B9B3690A
:1058000023B1013B012B06D90135C9E7317F1A4687
:1058100007F00EF8F8E707F0A7F8F5E7B81B0A005D
:10582000F84AFE1F1443FE1FF7B50446807807F0C0
:105830003FFC00283ED163781F49CB5CB3B1019097
:10584000A07808F00FF894F82030019A43B10221B3
:10585000A07808F025F8019AA078032108F020F834
:10586000627A1AB9A078042108F01AF8002794F88F
:105870003820A078FBB29A4204D807F0A1FDC0B24C
:1058800003B0F0BDE26B52F82350AB69032B0DD18E
:105890000026297FA0783144C9B208F04FF80136BC
:1058A000AA7BF3B29A42F4D80137E0E7297F08F0E7
:1058B00045F8F9E70120E3E71443FE1F70B5104EE9
:1058C0004378F35C0446D3B1807807F0CBFF63786C
:1058D0000025F55494F820304BB12A460221A078D7
:1058E00007F0DEFFA0782A46032107F0D9FF627A8D
:1058F0002AB9A0780421BDE8704007F0D1BF70BD7F
:105900001443FE1F38B5104D4278AA5C0446CAB94C
:10591000807807F087FF94F820304BB101220221F4
:10592000A07807F0BDFFA0780122032107F0B8FF9F
:10593000637A23B9A0780122042107F0B1FF6378CC
:105940000122EA5438BD00BF1443FE1F08B5807819
:1059500007F040FAC0F3011008BD807807F048BA9C
:10596000807807F055BA2DE9F0418B6986B00024A4
:10597000032B06460D46174604948DF8144002D0BA
:105980000120C0B240E01368DFF88880DA0F02928D
:10599000BA790392C3F380734A7C8DF811208DF895
:1059A000103042781A4B33F81230026B182101FB89
:1059B00003235B788DF812302B7B8DF81430297F10
:1059C000B0782144C9B207F0E1F878B9297F73783B
:1059D000BA88B078214401EB4313C9B228F81320E8
:1059E000BB68009302AA3B6806F09EFEAB7B0134C5
:1059F000E4B2A34204D90228E1D00028C1D0BFE715
:105A00000028BED00228BBD106B0BDE8F08100BF9F
:105A1000F84AFE1FD843FE1F38B50B68012B044619
:105A20000D460AD1807807F0A5FC70B902212960E3
:105A30002078BDE83840FBF73DB9022B05D18078CE
:105A400007F098FC08B10121F1E738BD437802EB7B
:105A500043120A4B33F812304FF6FF7083420CD0DA
:105A6000242000FB03110B7B3BB98B69032B04D172
:105A7000034B33F81200FBF71EB970471843FE1FA3
:105A8000D843FE1F2DE9F0414378054602EB43144D
:105A9000224830F814404FF6FF7084423CD0242056
:105AA00000FB0414277B002F36D1A6698EB91C4A4F
:105AB00052F82300237F1B012246C0582946FFF7D6
:105AC0001DFD237B217FA8783246BDE8F04106F01A
:105AD000AFBE012E20D1072A0AD13346082239460B
:105AE000502004F09DFFAB69B3B1BDE8F041184709
:105AF000062A01D16B69F7E7094A52F82300237F90
:105B00001B012946C0582246FFF7F8FCA878394601
:105B1000BDE8F04106F028BFBDE8F0811843FE1F44
:105B2000B81B0A0003EB021310B41B7A1446B3B976
:105B3000042914D8DFE801F0090B0D10030003223B
:105B4000E1B25DF8044BFFF7BFBB0022F8E701228A
:105B5000F6E701220621F4E701220721F1E75DF8CB
:105B6000044B7047062906D0072906D0052906D11F
:105B70000021FFF7E5BB0121FBE7FFF7C5BB70473D
:105B800070472DE9F047204FDFF88C80DFF88C90CC
:105B9000002502243E46BB78AB421CD864BB1B4F99
:105BA000DFF87C80DFF87C90DFF864A02546F3788E
:105BB0009D4221D257F8040B00EBC00353440C2242
:105BC0005B7819F8033002FB03839B689847012830
:105BD00011D00135EBE758F8040B0D4B00EBC00278
:105BE00013440C4A5B78D35C142202FB03939B683A
:105BF0009847012803D101242046BDE8F0870228F8
:105C000008BF00240135C6E7004BFE1FC41B0A0075
:105C1000581F0A0024230A00C81B0A00EC240A00AB
:105C2000FC230A0033230A002DE9F041314C22689D
:105C3000101E18BF0120FEF7E7F832BBBDE8F08167
:105C400002EBC503E800596E56F8211003290DD167
:105C50001B6E294903EBC3030B4460305B7818F8D3
:105C6000033007EBC30310445B6898470135226893
:105C7000D379AB42E4D8214B1B78002BDED0204EE9
:105C8000204FDFF87480002516E01F4E1F4FDFF80D
:105C900088800025EBE705F1590300EBC50250F8B9
:105CA000333003EBC303434402F532705B78FB5C93
:105CB00056F83330984701352068037B9D42EAD37C
:105CC000837B8BB1D0F864340B4A03EBC3031344DA
:105CD0000F4A5B78D35C0F4A182101FB032300F2C3
:105CE00064405B6998472068BDE8F041042102F0F8
:105CF000E7BB00BF044BFE1F581F0A00004BFE1FEE
:105D000060240A0042230A00CC1B0A0018250A005E
:105D1000F7220A00D4240A0015230A00064A00EBE1
:105D2000C0031344054A5B78D35C054A182101FB84
:105D300003239B68184700BF581F0A00F7220A0078
:105D4000D4240A00064A00EBC0031344054A5B78DA
:105D5000D35C054A182101FB03231B69184700BFC8
:105D6000581F0A00F7220A00D4240A00064A00EB52
:105D7000C0031344054A5B78D35C054A182101FB34
:105D80000323DB68184700BF581F0A00F7220A00E8
:105D9000D4240A00024608B5003818BF0120FEF7D7
:105DA00033F8014B1A6008BD2829FE1F064A00EB94
:105DB000C0031344054A5B78D25C054B03EBC20376
:105DC00001215B68184700BF581F0A0042230A00E0
:105DD00060240A00064A00EBC0031344054A5B78BE
:105DE000D25C054B03EBC20300215B68184700BF80
:105DF000581F0A0042230A0060240A0038B5064BE7
:105E000004460D461868022102F05AFB2946204636
:105E1000BDE8384002F07EBA044BFE1F662808B584
:105E2000024609D8333818BF0120FDF7EDFFBDE861
:105E30000840104601F030BD0020F6E7014B1B681A
:105E4000184700BF2829FE1FF8B5074600200E4658
:105E500014461D460DF0D0FD002138603160284603
